{
  "contractName": "ClaimElection",
  "abi": [
    {
      "constant": true,
      "inputs": [],
      "name": "awaitingConfirm",
      "outputs": [
        {
          "name": "",
          "type": "address"
        }
      ],
      "payable": false,
      "stateMutability": "view",
      "type": "function"
    },
    {
      "constant": false,
      "inputs": [
        {
          "name": "_newAuthorized",
          "type": "address"
        }
      ],
      "name": "transferAuth",
      "outputs": [
        {
          "name": "",
          "type": "bool"
        }
      ],
      "payable": false,
      "stateMutability": "nonpayable",
      "type": "function"
    },
    {
      "constant": false,
      "inputs": [],
      "name": "acceptAuth",
      "outputs": [
        {
          "name": "",
          "type": "bool"
        }
      ],
      "payable": false,
      "stateMutability": "nonpayable",
      "type": "function"
    },
    {
      "constant": true,
      "inputs": [],
      "name": "authorized",
      "outputs": [
        {
          "name": "",
          "type": "address"
        }
      ],
      "payable": false,
      "stateMutability": "view",
      "type": "function"
    },
    {
      "constant": true,
      "inputs": [],
      "name": "pQueue",
      "outputs": [
        {
          "name": "",
          "type": "address"
        }
      ],
      "payable": false,
      "stateMutability": "view",
      "type": "function"
    },
    {
      "constant": true,
      "inputs": [],
      "name": "token",
      "outputs": [
        {
          "name": "",
          "type": "address"
        }
      ],
      "payable": false,
      "stateMutability": "view",
      "type": "function"
    },
    {
      "inputs": [],
      "payable": false,
      "stateMutability": "nonpayable",
      "type": "constructor"
    },
    {
      "constant": false,
      "inputs": [
        {
          "name": "_t",
          "type": "address"
        }
      ],
      "name": "setToken",
      "outputs": [],
      "payable": false,
      "stateMutability": "nonpayable",
      "type": "function"
    },
    {
      "constant": false,
      "inputs": [
        {
          "name": "_amt",
          "type": "uint256"
        }
      ],
      "name": "joinQueue",
      "outputs": [
        {
          "name": "success",
          "type": "bool"
        }
      ],
      "payable": false,
      "stateMutability": "nonpayable",
      "type": "function"
    },
    {
      "constant": true,
      "inputs": [
        {
          "name": "_tn",
          "type": "address"
        }
      ],
      "name": "getNumBonds",
      "outputs": [
        {
          "name": "",
          "type": "uint256"
        }
      ],
      "payable": false,
      "stateMutability": "view",
      "type": "function"
    },
    {
      "constant": true,
      "inputs": [
        {
          "name": "_tn",
          "type": "address"
        },
        {
          "name": "_num",
          "type": "uint256"
        }
      ],
      "name": "getBond",
      "outputs": [
        {
          "name": "",
          "type": "uint256"
        }
      ],
      "payable": false,
      "stateMutability": "view",
      "type": "function"
    },
    {
      "constant": false,
      "inputs": [],
      "name": "getNext",
      "outputs": [
        {
          "name": "",
          "type": "address"
        }
      ],
      "payable": false,
      "stateMutability": "nonpayable",
      "type": "function"
    },
    {
      "constant": true,
      "inputs": [],
      "name": "isEmpty",
      "outputs": [
        {
          "name": "",
          "type": "bool"
        }
      ],
      "payable": false,
      "stateMutability": "view",
      "type": "function"
    }
  ],
  "bytecode": "0x6060604052341561000f57600080fd5b336000806101000a81548173ffffffffffffffffffffffffffffffffffffffff021916908373ffffffffffffffffffffffffffffffffffffffff1602179055506100576100b2565b604051809103906000f080151561006d57600080fd5b600260006101000a81548173ffffffffffffffffffffffffffffffffffffffff021916908373ffffffffffffffffffffffffffffffffffffffff1602179055506100c2565b604051610ecb80610e6d83390190565b610d9c806100d16000396000f3006060604052600436106100ba576000357c0100000000000000000000000000000000000000000000000000000000900463ffffffff16806308a7c40f146100bf578063144fa6d71461010c57806318044b9a146101455780632eeb13261461019a5780633a652d27146101eb578063456cb7c614610218578063681fe70c1461026d578063969494201461029a578063c36d549d146102d5578063db8ca4261461032a578063f3638f7814610380578063fc0c546a146103d5575b600080fd5b34156100ca57600080fd5b6100f6600480803573ffffffffffffffffffffffffffffffffffffffff1690602001909190505061042a565b6040518082815260200191505060405180910390f35b341561011757600080fd5b610143600480803573ffffffffffffffffffffffffffffffffffffffff16906020019091905050610473565b005b341561015057600080fd5b610158610512565b604051808273ffffffffffffffffffffffffffffffffffffffff1673ffffffffffffffffffffffffffffffffffffffff16815260200191505060405180910390f35b34156101a557600080fd5b6101d1600480803573ffffffffffffffffffffffffffffffffffffffff16906020019091905050610538565b604051808215151515815260200191505060405180910390f35b34156101f657600080fd5b6101fe6105df565b604051808215151515815260200191505060405180910390f35b341561022357600080fd5b61022b6106a9565b604051808273ffffffffffffffffffffffffffffffffffffffff1673ffffffffffffffffffffffffffffffffffffffff16815260200191505060405180910390f35b341561027857600080fd5b6102806106ce565b604051808215151515815260200191505060405180910390f35b34156102a557600080fd5b6102bb6004808035906020019091905050610771565b604051808215151515815260200191505060405180910390f35b34156102e057600080fd5b6102e8610b0e565b604051808273ffffffffffffffffffffffffffffffffffffffff1673ffffffffffffffffffffffffffffffffffffffff16815260200191505060405180910390f35b341561033557600080fd5b61036a600480803573ffffffffffffffffffffffffffffffffffffffff16906020019091908035906020019091905050610b34565b6040518082815260200191505060405180910390f35b341561038b57600080fd5b610393610b92565b604051808273ffffffffffffffffffffffffffffffffffffffff1673ffffffffffffffffffffffffffffffffffffffff16815260200191505060405180910390f35b34156103e057600080fd5b6103e8610d4a565b604051808273ffffffffffffffffffffffffffffffffffffffff1673ffffffffffffffffffffffffffffffffffffffff16815260200191505060405180910390f35b6000600560008373ffffffffffffffffffffffffffffffffffffffff1673ffffffffffffffffffffffffffffffffffffffff168152602001908152602001600020549050919050565b6000809054906101000a900473ffffffffffffffffffffffffffffffffffffffff1673ffffffffffffffffffffffffffffffffffffffff163373ffffffffffffffffffffffffffffffffffffffff161415156104ce57600080fd5b80600360006101000a81548173ffffffffffffffffffffffffffffffffffffffff021916908373ffffffffffffffffffffffffffffffffffffffff16021790555050565b600160009054906101000a900473ffffffffffffffffffffffffffffffffffffffff1681565b60008060009054906101000a900473ffffffffffffffffffffffffffffffffffffffff1673ffffffffffffffffffffffffffffffffffffffff163373ffffffffffffffffffffffffffffffffffffffff1614151561059557600080fd5b81600160006101000a81548173ffffffffffffffffffffffffffffffffffffffff021916908373ffffffffffffffffffffffffffffffffffffffff16021790555060019050919050565b6000600160009054906101000a900473ffffffffffffffffffffffffffffffffffffffff1673ffffffffffffffffffffffffffffffffffffffff163373ffffffffffffffffffffffffffffffffffffffff1614151561063d57600080fd5b600160006101000a81549073ffffffffffffffffffffffffffffffffffffffff0219169055336000806101000a81548173ffffffffffffffffffffffffffffffffffffffff021916908373ffffffffffffffffffffffffffffffffffffffff1602179055506001905090565b6000809054906101000a900473ffffffffffffffffffffffffffffffffffffffff1681565b6000600260009054906101000a900473ffffffffffffffffffffffffffffffffffffffff1673ffffffffffffffffffffffffffffffffffffffff1663681fe70c6040518163ffffffff167c0100000000000000000000000000000000000000000000000000000000028152600401602060405180830381600087803b151561075557600080fd5b5af1151561076257600080fd5b50505060405180519050905090565b6000806000600360009054906101000a900473ffffffffffffffffffffffffffffffffffffffff1673ffffffffffffffffffffffffffffffffffffffff166370a08231336040518263ffffffff167c0100000000000000000000000000000000000000000000000000000000028152600401808273ffffffffffffffffffffffffffffffffffffffff1673ffffffffffffffffffffffffffffffffffffffff168152602001915050602060405180830381600087803b151561083257600080fd5b5af1151561083f57600080fd5b50505060405180519050915083821015151561085a57600080fd5b600360009054906101000a900473ffffffffffffffffffffffffffffffffffffffff1673ffffffffffffffffffffffffffffffffffffffff166323b872dd3330876040518463ffffffff167c0100000000000000000000000000000000000000000000000000000000028152600401808473ffffffffffffffffffffffffffffffffffffffff1673ffffffffffffffffffffffffffffffffffffffff1681526020018373ffffffffffffffffffffffffffffffffffffffff1673ffffffffffffffffffffffffffffffffffffffff1681526020018281526020019350505050602060405180830381600087803b151561095257600080fd5b5af1151561095f57600080fd5b5050506040518051905050600560003373ffffffffffffffffffffffffffffffffffffffff1673ffffffffffffffffffffffffffffffffffffffff168152602001908152602001600020600081548092919060010191905055905060206040519081016040528085815250600460003373ffffffffffffffffffffffffffffffffffffffff1673ffffffffffffffffffffffffffffffffffffffff168152602001908152602001600020600083815260200190815260200160002060008201518160000155905050600260009054906101000a900473ffffffffffffffffffffffffffffffffffffffff1673ffffffffffffffffffffffffffffffffffffffff1663074dd09b85336040518363ffffffff167c0100000000000000000000000000000000000000000000000000000000028152600401808381526020018273ffffffffffffffffffffffffffffffffffffffff1673ffffffffffffffffffffffffffffffffffffffff16815260200192505050602060405180830381600087803b1515610aeb57600080fd5b5af11515610af857600080fd5b5050506040518051905050600192505050919050565b600260009054906101000a900473ffffffffffffffffffffffffffffffffffffffff1681565b6000600460008473ffffffffffffffffffffffffffffffffffffffff1673ffffffffffffffffffffffffffffffffffffffff168152602001908152602001600020600083815260200190815260200160002060000154905092915050565b60008060008060009054906101000a900473ffffffffffffffffffffffffffffffffffffffff1673ffffffffffffffffffffffffffffffffffffffff163373ffffffffffffffffffffffffffffffffffffffff16141515610bf257600080fd5b600260009054906101000a900473ffffffffffffffffffffffffffffffffffffffff1673ffffffffffffffffffffffffffffffffffffffff1663681fe70c6040518163ffffffff167c0100000000000000000000000000000000000000000000000000000000028152600401602060405180830381600087803b1515610c7757600080fd5b5af11515610c8457600080fd5b5050506040518051905015610c9c5760009250610d45565b600260009054906101000a900473ffffffffffffffffffffffffffffffffffffffff1673ffffffffffffffffffffffffffffffffffffffff1663a4ece52c6040518163ffffffff167c01000000000000000000000000000000000000000000000000000000000281526004016040805180830381600087803b1515610d2057600080fd5b5af11515610d2d57600080fd5b50505060405180519060200180519050915091508092505b505090565b600360009054906101000a900473ffffffffffffffffffffffffffffffffffffffff16815600a165627a7a7230582004d58103912f10f306a4f2dd360c4cc67059d849a6bffaf3460f3fe8ba23ed2200296060604052341561000f57600080fd5b336000806101000a81548173ffffffffffffffffffffffffffffffffffffffff021916908373ffffffffffffffffffffffffffffffffffffffff160217905550610e6d8061005e6000396000f300606060405260043610610099576000357c0100000000000000000000000000000000000000000000000000000000900463ffffffff168063074dd09b1461009e57806318044b9a146100f85780631b26aafd1461014d5780632eeb1326146101b75780633a652d2714610208578063456cb7c61461023557806359e02dd71461028a578063681fe70c146102e6578063a4ece52c14610313575b600080fd5b34156100a957600080fd5b6100de600480803590602001909190803573ffffffffffffffffffffffffffffffffffffffff1690602001909190505061036f565b604051808215151515815260200191505060405180910390f35b341561010357600080fd5b61010b61049d565b604051808273ffffffffffffffffffffffffffffffffffffffff1673ffffffffffffffffffffffffffffffffffffffff16815260200191505060405180910390f35b341561015857600080fd5b61016e60048080359060200190919050506104c3565b604051808381526020018273ffffffffffffffffffffffffffffffffffffffff1673ffffffffffffffffffffffffffffffffffffffff1681526020019250505060405180910390f35b34156101c257600080fd5b6101ee600480803573ffffffffffffffffffffffffffffffffffffffff16906020019091905050610542565b604051808215151515815260200191505060405180910390f35b341561021357600080fd5b61021b6105e9565b604051808215151515815260200191505060405180910390f35b341561024057600080fd5b6102486106b3565b604051808273ffffffffffffffffffffffffffffffffffffffff1673ffffffffffffffffffffffffffffffffffffffff16815260200191505060405180910390f35b341561029557600080fd5b61029d6106d8565b604051808381526020018273ffffffffffffffffffffffffffffffffffffffff1673ffffffffffffffffffffffffffffffffffffffff1681526020019250505060405180910390f35b34156102f157600080fd5b6102f961075b565b604051808215151515815260200191505060405180910390f35b341561031e57600080fd5b610326610767565b604051808381526020018273ffffffffffffffffffffffffffffffffffffffff1673ffffffffffffffffffffffffffffffffffffffff1681526020019250505060405180910390f35b60008060009054906101000a900473ffffffffffffffffffffffffffffffffffffffff1673ffffffffffffffffffffffffffffffffffffffff163373ffffffffffffffffffffffffffffffffffffffff161415156103cc57600080fd5b600280548060010182816103e09190610d8f565b9160005260206000209060020201600060408051908101604052808673ffffffffffffffffffffffffffffffffffffffff16815260200187815250909190915060008201518160000160006101000a81548173ffffffffffffffffffffffffffffffffffffffff021916908373ffffffffffffffffffffffffffffffffffffffff160217905550602082015181600101555050506001600360008282540192505081905550610493600160035403610979565b6001905092915050565b600160009054906101000a900473ffffffffffffffffffffffffffffffffffffffff1681565b600080600354831015156104d65761053d565b6002838154811015156104e557fe5b90600052602060002090600202016001015460028481548110151561050657fe5b906000526020600020906002020160000160009054906101000a900473ffffffffffffffffffffffffffffffffffffffff16915091505b915091565b60008060009054906101000a900473ffffffffffffffffffffffffffffffffffffffff1673ffffffffffffffffffffffffffffffffffffffff163373ffffffffffffffffffffffffffffffffffffffff1614151561059f57600080fd5b81600160006101000a81548173ffffffffffffffffffffffffffffffffffffffff021916908373ffffffffffffffffffffffffffffffffffffffff16021790555060019050919050565b6000600160009054906101000a900473ffffffffffffffffffffffffffffffffffffffff1673ffffffffffffffffffffffffffffffffffffffff163373ffffffffffffffffffffffffffffffffffffffff1614151561064757600080fd5b600160006101000a81549073ffffffffffffffffffffffffffffffffffffffff0219169055336000806101000a81548173ffffffffffffffffffffffffffffffffffffffff021916908373ffffffffffffffffffffffffffffffffffffffff1602179055506001905090565b6000809054906101000a900473ffffffffffffffffffffffffffffffffffffffff1681565b6000806106e361075b565b1515156106ef57600080fd5b600260008154811015156106ff57fe5b9060005260206000209060020201600101546002600081548110151561072157fe5b906000526020600020906002020160000160009054906101000a900473ffffffffffffffffffffffffffffffffffffffff16915091509091565b60008060035414905090565b6000806000809054906101000a900473ffffffffffffffffffffffffffffffffffffffff1673ffffffffffffffffffffffffffffffffffffffff163373ffffffffffffffffffffffffffffffffffffffff161415156107c557600080fd5b6107cd6106d8565b809250819350505060026001600354038154811015156107e957fe5b90600052602060002090600202016002600081548110151561080757fe5b90600052602060002090600202016000820160009054906101000a900473ffffffffffffffffffffffffffffffffffffffff168160000160006101000a81548173ffffffffffffffffffffffffffffffffffffffff021916908373ffffffffffffffffffffffffffffffffffffffff16021790555060018201548160010155905050600260016003540381548110151561089d57fe5b9060005260206000209060020201600080820160006101000a81549073ffffffffffffffffffffffffffffffffffffffff0219169055600182016000905550506001600354036003819055506108f36000610b47565b6001600280549050036002816109099190610dc1565b507f0d18872f6bc15a3afe92b2fba619660c53cf36700235f952be9efe7441737ea18282604051808381526020018273ffffffffffffffffffffffffffffffffffffffff1673ffffffffffffffffffffffffffffffffffffffff1681526020019250505060405180910390a19091565b600080600083925061098a836104c3565b915091505b6000831180156109c9575081600280858115156109a857fe5b048154811015156109b557fe5b906000526020600020906002020160010154105b15610a9b57600280848115156109db57fe5b048154811015156109e857fe5b9060005260206000209060020201600284815481101515610a0557fe5b90600052602060002090600202016000820160009054906101000a900473ffffffffffffffffffffffffffffffffffffffff168160000160006101000a81548173ffffffffffffffffffffffffffffffffffffffff021916908373ffffffffffffffffffffffffffffffffffffffff16021790555060018201548160010155905050600283811515610a9357fe5b04925061098f565b8383141515610b415760408051908101604052808273ffffffffffffffffffffffffffffffffffffffff16815260200183815250600284815481101515610ade57fe5b906000526020600020906002020160008201518160000160006101000a81548173ffffffffffffffffffffffffffffffffffffffff021916908373ffffffffffffffffffffffffffffffffffffffff160217905550602082015181600101559050505b50505050565b60008060008060008086955060018660020201935060018401925060035484108015610bb25750600286815481101515610b7d57fe5b906000526020600020906002020160010154600285815481101515610b9e57fe5b906000526020600020906002020160010154115b15610bbf57839450610bc3565b8594505b60035483108015610c135750600285815481101515610bde57fe5b906000526020600020906002020160010154600284815481101515610bff57fe5b906000526020600020906002020160010154115b15610c1c578294505b8585141515610d8657610c2e866104c3565b91509150600285815481101515610c4157fe5b9060005260206000209060020201600287815481101515610c5e57fe5b90600052602060002090600202016000820160009054906101000a900473ffffffffffffffffffffffffffffffffffffffff168160000160006101000a81548173ffffffffffffffffffffffffffffffffffffffff021916908373ffffffffffffffffffffffffffffffffffffffff1602179055506001820154816001015590505060408051908101604052808273ffffffffffffffffffffffffffffffffffffffff16815260200183815250600286815481101515610d1a57fe5b906000526020600020906002020160008201518160000160006101000a81548173ffffffffffffffffffffffffffffffffffffffff021916908373ffffffffffffffffffffffffffffffffffffffff16021790555060208201518160010155905050610d8585610b47565b5b50505050505050565b815481835581811511610dbc57600202816002028360005260206000209182019101610dbb9190610df3565b5b505050565b815481835581811511610dee57600202816002028360005260206000209182019101610ded9190610df3565b5b505050565b610e3e91905b80821115610e3a57600080820160006101000a81549073ffffffffffffffffffffffffffffffffffffffff0219169055600182016000905550600201610df9565b5090565b905600a165627a7a72305820bf8160ea277aa2b5c1f02f190bcdc81550a5f038197df8caf358bcf71c146eab0029",
  "source": "pragma solidity ^0.4.21;\n\nimport \"./Auth.sol\";\nimport \"../chronologic/contracts/DayToken.sol\";\nimport \"./PriorityQueue.sol\";\n\ncontract ClaimElection is Auth {\n    PriorityQueue public pQueue;\n    DayToken public token;\n\n    //constructor\n    function ClaimElection() public {\n        pQueue = new PriorityQueue();\n    }\n\n    function setToken(address _t) public auth {\n        token = DayToken(_t);\n    }\n\n    struct Bond {\n        uint256 value;\n        // uint256 depositedAt;\n    } \n\n    mapping (address => mapping(uint256 => Bond)) bonds;\n    mapping (address => uint256) numBonds;\n\n    // Timenode cooldown\n    mapping (address => uint256) cooldown;\n\n    function joinQueue(uint256 _amt)\n        public returns (bool success)\n    {\n        uint256 tokenBal = token.balanceOf(msg.sender);\n        require(tokenBal >= _amt);\n\n        token.transferFrom(msg.sender, address(this), _amt);\n        uint256 nextBond = numBonds[msg.sender]++;\n        bonds[msg.sender][nextBond] = Bond({\n            value: _amt\n        });\n\n        pQueue.insert(_amt, msg.sender);\n\n        // startCooldown(msg.sender);\n        return true;\n    }\n\n    function getNumBonds(address _tn)\n        public view returns (uint256)\n    {\n        return numBonds[_tn];\n    }\n\n    function getBond(address _tn, uint256 _num)\n        public view returns (uint256)\n    {\n        return bonds[_tn][_num].value;\n    }\n\n    function getNext()\n        auth\n        public returns (address)\n    {\n        if (pQueue.isEmpty()) {\n            return address(0x0);\n        }\n\n        var (_, next) = pQueue.pop();\n\n        return next;\n    }\n\n    function isEmpty()\n        public view returns (bool)\n    {\n        return pQueue.isEmpty();\n    }\n}",
  "sourcePath": "/home/logan/Work/v2/chronos/contracts/ClaimElection.sol",
  "compiler": {
    "name": "solc",
    "version": "0.4.21+commit.dfe3193c.Emscripten.clang"
  },
  "schemaVersion": "2.0.0",
  "updatedAt": "2018-05-11T10:15:35.708Z"
}