{
  "contractName": "ClaimingPool",
  "abi": [
    {
      "constant": true,
      "inputs": [],
      "name": "slashedDay",
      "outputs": [
        {
          "name": "",
          "type": "uint256"
        }
      ],
      "payable": false,
      "stateMutability": "view",
      "type": "function"
    },
    {
      "constant": true,
      "inputs": [],
      "name": "operator",
      "outputs": [
        {
          "name": "",
          "type": "address"
        }
      ],
      "payable": false,
      "stateMutability": "view",
      "type": "function"
    },
    {
      "constant": true,
      "inputs": [],
      "name": "dayToken",
      "outputs": [
        {
          "name": "",
          "type": "address"
        }
      ],
      "payable": false,
      "stateMutability": "view",
      "type": "function"
    },
    {
      "inputs": [
        {
          "name": "_dayTokenAddress",
          "type": "address"
        }
      ],
      "payable": false,
      "stateMutability": "nonpayable",
      "type": "constructor"
    },
    {
      "constant": false,
      "inputs": [],
      "name": "depositDay",
      "outputs": [],
      "payable": false,
      "stateMutability": "nonpayable",
      "type": "function"
    },
    {
      "constant": true,
      "inputs": [
        {
          "name": "_timeNode",
          "type": "address"
        }
      ],
      "name": "canClaim",
      "outputs": [
        {
          "name": "",
          "type": "bool"
        }
      ],
      "payable": false,
      "stateMutability": "view",
      "type": "function"
    },
    {
      "constant": true,
      "inputs": [
        {
          "name": "_dayTokens",
          "type": "uint256"
        },
        {
          "name": "_totalSupply",
          "type": "uint256"
        }
      ],
      "name": "calcFrequency",
      "outputs": [
        {
          "name": "",
          "type": "uint256"
        }
      ],
      "payable": false,
      "stateMutability": "view",
      "type": "function"
    },
    {
      "constant": false,
      "inputs": [
        {
          "name": "_timeNode",
          "type": "address"
        }
      ],
      "name": "removeTimeNode",
      "outputs": [],
      "payable": false,
      "stateMutability": "nonpayable",
      "type": "function"
    },
    {
      "constant": false,
      "inputs": [],
      "name": "recoverSlashedDay",
      "outputs": [],
      "payable": false,
      "stateMutability": "nonpayable",
      "type": "function"
    },
    {
      "constant": true,
      "inputs": [
        {
          "name": "_addressToCheck",
          "type": "address"
        }
      ],
      "name": "hasDeposited",
      "outputs": [
        {
          "name": "",
          "type": "bool"
        }
      ],
      "payable": false,
      "stateMutability": "view",
      "type": "function"
    }
  ],
  "bytecode": "0x6060604052341561000f57600080fd5b604051602080610c3b8339810160405280805190602001909190505033600160006101000a81548173ffffffffffffffffffffffffffffffffffffffff021916908373ffffffffffffffffffffffffffffffffffffffff16021790555080600260006101000a81548173ffffffffffffffffffffffffffffffffffffffff021916908373ffffffffffffffffffffffffffffffffffffffff16021790555050610b7e806100bd6000396000f300606060405260043610610099576000357c0100000000000000000000000000000000000000000000000000000000900463ffffffff1680632c8fded91461009e5780633d0b24a9146100d757806340abce8714610100578063570ca73514610140578063b625c45914610195578063bf3506c1146101ea578063c97fba2f1461023b578063f2c16e6f14610250578063f512512b146102a1575b600080fd5b34156100a957600080fd5b6100d5600480803573ffffffffffffffffffffffffffffffffffffffff169060200190919050506102b6565b005b34156100e257600080fd5b6100ea6103e1565b6040518082815260200191505060405180910390f35b341561010b57600080fd5b61012a60048080359060200190919080359060200190919050506103e7565b6040518082815260200191505060405180910390f35b341561014b57600080fd5b610153610403565b604051808273ffffffffffffffffffffffffffffffffffffffff1673ffffffffffffffffffffffffffffffffffffffff16815260200191505060405180910390f35b34156101a057600080fd5b6101a8610429565b604051808273ffffffffffffffffffffffffffffffffffffffff1673ffffffffffffffffffffffffffffffffffffffff16815260200191505060405180910390f35b34156101f557600080fd5b610221600480803573ffffffffffffffffffffffffffffffffffffffff1690602001909190505061044f565b604051808215151515815260200191505060405180910390f35b341561024657600080fd5b61024e61069c565b005b341561025b57600080fd5b610287600480803573ffffffffffffffffffffffffffffffffffffffff1690602001909190505061097f565b604051808215151515815260200191505060405180910390f35b34156102ac57600080fd5b6102b46109d7565b005b600160009054906101000a900473ffffffffffffffffffffffffffffffffffffffff1673ffffffffffffffffffffffffffffffffffffffff163373ffffffffffffffffffffffffffffffffffffffff1614151561031257600080fd5b600115156000808373ffffffffffffffffffffffffffffffffffffffff1673ffffffffffffffffffffffffffffffffffffffff16815260200190815260200160002060000160009054906101000a900460ff16151514151561037357600080fd5b60008060008373ffffffffffffffffffffffffffffffffffffffff1673ffffffffffffffffffffffffffffffffffffffff16815260200190815260200160002060000160006101000a81548160ff021916908315150217905550602160036000828254019250508190555050565b60035481565b600081602684028115156103f757fe5b04602803905092915050565b600160009054906101000a900473ffffffffffffffffffffffffffffffffffffffff1681565b600260009054906101000a900473ffffffffffffffffffffffffffffffffffffffff1681565b6000806000806000600115156000808873ffffffffffffffffffffffffffffffffffffffff1673ffffffffffffffffffffffffffffffffffffffff16815260200190815260200160002060000160009054906101000a900460ff1615151415156104b857600080fd5b600260009054906101000a900473ffffffffffffffffffffffffffffffffffffffff1673ffffffffffffffffffffffffffffffffffffffff1663c4e41b226040518163ffffffff167c0100000000000000000000000000000000000000000000000000000000028152600401602060405180830381600087803b151561053d57600080fd5b5af1151561054a57600080fd5b505050604051805190509350600260009054906101000a900473ffffffffffffffffffffffffffffffffffffffff1673ffffffffffffffffffffffffffffffffffffffff166370a08231876040518263ffffffff167c0100000000000000000000000000000000000000000000000000000000028152600401808273ffffffffffffffffffffffffffffffffffffffff1673ffffffffffffffffffffffffffffffffffffffff168152602001915050602060405180830381600087803b151561061257600080fd5b5af1151561061f57600080fd5b50505060405180519050925061063583856103e7565b91506000808773ffffffffffffffffffffffffffffffffffffffff1673ffffffffffffffffffffffffffffffffffffffff16815260200190815260200160002060010154430390508181101561068e5760009450610693565b600194505b50505050919050565b600015156000803373ffffffffffffffffffffffffffffffffffffffff1673ffffffffffffffffffffffffffffffffffffffff16815260200190815260200160002060000160009054906101000a900460ff1615151415156106fd57600080fd5b6021600260009054906101000a900473ffffffffffffffffffffffffffffffffffffffff1673ffffffffffffffffffffffffffffffffffffffff166370a08231336040518263ffffffff167c0100000000000000000000000000000000000000000000000000000000028152600401808273ffffffffffffffffffffffffffffffffffffffff1673ffffffffffffffffffffffffffffffffffffffff168152602001915050602060405180830381600087803b15156107bb57600080fd5b5af115156107c857600080fd5b50505060405180519050101515156107df57600080fd5b600260009054906101000a900473ffffffffffffffffffffffffffffffffffffffff1673ffffffffffffffffffffffffffffffffffffffff166323b872dd333060216040518463ffffffff167c0100000000000000000000000000000000000000000000000000000000028152600401808473ffffffffffffffffffffffffffffffffffffffff1673ffffffffffffffffffffffffffffffffffffffff1681526020018373ffffffffffffffffffffffffffffffffffffffff1673ffffffffffffffffffffffffffffffffffffffff1681526020018281526020019350505050602060405180830381600087803b15156108d857600080fd5b5af115156108e557600080fd5b5050506040518051905015156108fa57600080fd5b6040805190810160405280600115158152602001438152506000803373ffffffffffffffffffffffffffffffffffffffff1673ffffffffffffffffffffffffffffffffffffffff16815260200190815260200160002060008201518160000160006101000a81548160ff02191690831515021790555060208201518160010155905050565b60008060008373ffffffffffffffffffffffffffffffffffffffff1673ffffffffffffffffffffffffffffffffffffffff16815260200190815260200160002060000160009054906101000a900460ff169050919050565b6000600160009054906101000a900473ffffffffffffffffffffffffffffffffffffffff1673ffffffffffffffffffffffffffffffffffffffff163373ffffffffffffffffffffffffffffffffffffffff16141515610a3557600080fd5b6000600354111515610a4657600080fd5b6003549050600360009055600260009054906101000a900473ffffffffffffffffffffffffffffffffffffffff1673ffffffffffffffffffffffffffffffffffffffff1663a9059cbb600160009054906101000a900473ffffffffffffffffffffffffffffffffffffffff16836040518363ffffffff167c0100000000000000000000000000000000000000000000000000000000028152600401808373ffffffffffffffffffffffffffffffffffffffff1673ffffffffffffffffffffffffffffffffffffffff16815260200182815260200192505050602060405180830381600087803b1515610b3757600080fd5b5af11515610b4457600080fd5b5050506040518051905050505600a165627a7a723058204db0924d66236c899dc3d0f03e84603dd9f5f3f3a4a2585b81ca0360db40536d0029",
  "source": "pragma solidity ^0.4.21;\n\nimport \"../chronologic/contracts/DayToken.sol\";\n\ncontract ClaimingPool {\n    /// The ClaimingPool is a contract where TimeNodes can deposit ChronoLogic Day \n    /// token to be included in the claiming mechanism of the Pendulum protocol. \n\n    struct Deposit {\n        bool deposited;\n        uint256 lastClaimAt;\n    }\n\n    mapping (address => Deposit) deposits;\n\n    // Operator of the claiming pool.\n    address public operator;\n\n    // Address of the Day Token.\n    DayToken public dayToken;\n\n    // Slashed Day deposits.\n    uint256 public slashedDay;\n\n    function ClaimingPool(address _dayTokenAddress) public {\n        operator = msg.sender;\n        dayToken = DayToken(_dayTokenAddress);\n    }\n\n    function depositDay() \n        public\n    {\n        require(deposits[msg.sender].deposited == false);\n\n        require(dayToken.balanceOf(msg.sender) >= 33);\n\n        // Send 33 Day Token to this address.\n        require(\n            dayToken.transferFrom(msg.sender, address(this), 33)\n        );\n        deposits[msg.sender] = Deposit({\n            deposited: true,\n            lastClaimAt: block.number\n        });\n    }\n\n    function canClaim(address _timeNode)\n        public view returns (bool)\n    {\n        require(deposits[_timeNode].deposited == true);\n        uint256 totalSupply = dayToken.getTotalSupply();\n        uint256 dayTokenHeld = dayToken.balanceOf(_timeNode);\n        uint256 frequency = calcFrequency(dayTokenHeld, totalSupply);\n        uint256 blocksAgo = block.number - deposits[_timeNode].lastClaimAt;\n        if (blocksAgo < frequency) { return false; }\n        else { return true; }\n    }\n\n    function calcFrequency(\n        uint256 _dayTokens,\n        uint256 _totalSupply\n    )\n        public view returns (uint256)\n    {\n        // Changes the range to 2 - 40.\n        return 40 - ((_dayTokens * 38) / _totalSupply);\n    }\n\n    function removeTimeNode(address _timeNode)\n        public\n    {\n        // Operator gate for now.\n        require(msg.sender == operator);\n        require(deposits[_timeNode].deposited == true);\n        deposits[_timeNode].deposited = false;\n        slashedDay += 33;\n    }\n\n    function recoverSlashedDay()\n        public \n    {\n        // Operator gate for now.\n        require(msg.sender == operator);\n        require(slashedDay > 0);\n        uint256 amt = slashedDay;\n        delete slashedDay;\n        dayToken.transfer(operator, amt);\n    }\n\n    function hasDeposited(address _addressToCheck)\n        public view returns (bool)\n    {\n        return deposits[_addressToCheck].deposited;\n    }\n}",
  "sourcePath": "/home/logan/Work/v2/EAC-v2/contracts/ClaimingPool.sol",
  "compiler": {
    "name": "solc",
    "version": "0.4.21+commit.dfe3193c.Emscripten.clang"
  },
  "schemaVersion": "2.0.0",
  "updatedAt": "2018-04-12T19:32:14.392Z"
}