{
  "contractName": "EventEmitter",
  "abi": [
    {
      "anonymous": false,
      "inputs": [
        {
          "indexed": false,
          "name": "newTransaction",
          "type": "address"
        },
        {
          "indexed": false,
          "name": "serializedBytes",
          "type": "bytes"
        },
        {
          "indexed": true,
          "name": "scheduledBy",
          "type": "address"
        },
        {
          "indexed": true,
          "name": "scheduledFrom",
          "type": "address"
        }
      ],
      "name": "NewTransactionScheduled",
      "type": "event"
    },
    {
      "constant": false,
      "inputs": [
        {
          "name": "_newTransaction",
          "type": "address"
        },
        {
          "name": "_serializedBytes",
          "type": "bytes"
        },
        {
          "name": "_scheduledBy",
          "type": "address"
        }
      ],
      "name": "logNewTransactionScheduled",
      "outputs": [],
      "payable": false,
      "stateMutability": "nonpayable",
      "type": "function"
    }
  ],
  "bytecode": "0x6060604052341561000f57600080fd5b6102108061001e6000396000f300606060405260043610610041576000357c0100000000000000000000000000000000000000000000000000000000900463ffffffff168063eb0d633014610046575b600080fd5b341561005157600080fd5b6100df600480803573ffffffffffffffffffffffffffffffffffffffff1690602001909190803590602001908201803590602001908080601f0160208091040260200160405190810160405280939291908181526020018383808284378201915050505050509190803573ffffffffffffffffffffffffffffffffffffffff169060200190919050506100e1565b005b3373ffffffffffffffffffffffffffffffffffffffff168173ffffffffffffffffffffffffffffffffffffffff167f94c6f2d01cc82df9dceeabfd7786c57a01cd9796e7cab146d2d0cf5c8380310d8585604051808373ffffffffffffffffffffffffffffffffffffffff1673ffffffffffffffffffffffffffffffffffffffff16815260200180602001828103825283818151815260200191508051906020019080838360005b838110156101a4578082015181840152602081019050610189565b50505050905090810190601f1680156101d15780820380516001836020036101000a031916815260200191505b50935050505060405180910390a35050505600a165627a7a72305820041391ec443a7a79e4954a6b3631543f4a61a1b529751238ce0af0366b92d8a50029",
  "source": "pragma solidity ^0.4.19;\n\ncontract EventEmitter {\n    event NewTransactionScheduled(address newTransaction, bytes serializedBytes, address indexed scheduledBy, address indexed scheduledFrom);\n    // event Parameters(\n    //     bytes2 temporalUnit,\n    //     address recipient,\n    //     uint256 value,\n    //     uint256 callGas,\n    //     uint256 gasPrice,\n    //     uint256 executionWindowStart,\n    //     uint256 executionWindowLength,\n    //     uint256 bounty,\n    //     uint256 fee,\n    //     bytes callData\n    // );\n\n    function logNewTransactionScheduled(\n        address _newTransaction,\n        bytes _serializedBytes,\n        address _scheduledBy\n    )\n        public\n    {\n        // This will log the `msg.sender` as the last indexed address so that TimeNodes can filter by where\n        // the event originated from. Tries to mitigate spam attacks.\n        emit NewTransactionScheduled(_newTransaction, _serializedBytes, _scheduledBy, msg.sender);\n    }\n\n    // function logParameters(\n    //     bytes2 _temporalUnit,\n    //     address _recipient,\n    //     uint256 _value,\n    //     uint256 _callGas,\n    //     uint256 _gasPrice,\n    //     uint256 _executionWindowStart,\n    //     uint256 _executionWindowLength,\n    //     uint256 _bounty,\n    //     uint256 _fee,\n    //     bytes _callData\n    // )\n    //     public\n    // {\n    //     Parameters(_temporalUnit, _recipient, _value, _callGas, _gasPrice, _executionWindowStart, _executionWindowLength, _bounty, _fee, _callData);\n    // }\n}",
  "sourcePath": "/home/logan/Work/v2/EAC-v2/contracts/EventEmitter.sol",
  "compiler": {
    "name": "solc",
    "version": "0.4.21+commit.dfe3193c.Emscripten.clang"
  },
  "schemaVersion": "2.0.0",
  "updatedAt": "2018-04-13T10:24:25.386Z"
}