{
  "contractName": "EventEmitter",
  "abi": [
    {
      "anonymous": false,
      "inputs": [
        {
          "indexed": false,
          "name": "newTransaction",
          "type": "address"
        },
        {
          "indexed": true,
          "name": "scheduledBy",
          "type": "address"
        },
        {
          "indexed": true,
          "name": "scheduledFrom",
          "type": "address"
        }
      ],
      "name": "NewTransactionScheduled",
      "type": "event"
    },
    {
      "constant": false,
      "inputs": [
        {
          "name": "_newTransaction",
          "type": "address"
        },
        {
          "name": "_scheduledBy",
          "type": "address"
        }
      ],
      "name": "logNewTransactionScheduled",
      "outputs": [],
      "payable": false,
      "stateMutability": "nonpayable",
      "type": "function"
    }
  ],
  "bytecode": "0x6060604052341561000f57600080fd5b61015f8061001e6000396000f300606060405260043610610041576000357c0100000000000000000000000000000000000000000000000000000000900463ffffffff16806382faa64014610046575b600080fd5b341561005157600080fd5b61009c600480803573ffffffffffffffffffffffffffffffffffffffff1690602001909190803573ffffffffffffffffffffffffffffffffffffffff1690602001909190505061009e565b005b3373ffffffffffffffffffffffffffffffffffffffff168173ffffffffffffffffffffffffffffffffffffffff167f4b348504191e81b6d2880fa3e9f5049c17367eab80834ed507ea4e7998b4e81784604051808273ffffffffffffffffffffffffffffffffffffffff1673ffffffffffffffffffffffffffffffffffffffff16815260200191505060405180910390a350505600a165627a7a72305820d3407acaca63647f175f947aacf067bab5fe0170a07815a0829da51cf8ba143b0029",
  "source": "pragma solidity ^0.4.19;\n\ncontract EventEmitter {\n    event NewTransactionScheduled(address newTransaction, address indexed scheduledBy, address indexed scheduledFrom);\n    // event Parameters(\n    //     bytes2 temporalUnit,\n    //     address recipient,\n    //     uint256 value,\n    //     uint256 callGas,\n    //     uint256 gasPrice,\n    //     uint256 executionWindowStart,\n    //     uint256 executionWindowLength,\n    //     uint256 bounty,\n    //     uint256 fee,\n    //     bytes callData\n    // );\n\n    function logNewTransactionScheduled(\n        address _newTransaction,\n        address _scheduledBy\n    )\n        public\n    {\n        // This will log the `msg.sender` as the last indexed address so that TimeNodes can filter by where\n        // the event originated from. Tries to mitigate spam attacks.\n        emit NewTransactionScheduled(_newTransaction, _scheduledBy, msg.sender);\n    }\n\n    // function logParameters(\n    //     bytes2 _temporalUnit,\n    //     address _recipient,\n    //     uint256 _value,\n    //     uint256 _callGas,\n    //     uint256 _gasPrice,\n    //     uint256 _executionWindowStart,\n    //     uint256 _executionWindowLength,\n    //     uint256 _bounty,\n    //     uint256 _fee,\n    //     bytes _callData\n    // )\n    //     public\n    // {\n    //     Parameters(_temporalUnit, _recipient, _value, _callGas, _gasPrice, _executionWindowStart, _executionWindowLength, _bounty, _fee, _callData);\n    // }\n}",
  "sourcePath": "/home/logan/Work/EAC-v2/contracts/EventEmitter.sol",
  "compiler": {
    "name": "solc",
    "version": "0.4.21+commit.dfe3193c.Emscripten.clang"
  },
  "schemaVersion": "2.0.0",
  "updatedAt": "2018-04-11T10:00:07.603Z"
}