{
  "contractName": "PriorityQueue",
  "abi": [
    {
      "constant": true,
      "inputs": [],
      "name": "awaitingConfirm",
      "outputs": [
        {
          "name": "",
          "type": "address"
        }
      ],
      "payable": false,
      "stateMutability": "view",
      "type": "function"
    },
    {
      "constant": false,
      "inputs": [
        {
          "name": "_newAuthorized",
          "type": "address"
        }
      ],
      "name": "transferAuth",
      "outputs": [
        {
          "name": "",
          "type": "bool"
        }
      ],
      "payable": false,
      "stateMutability": "nonpayable",
      "type": "function"
    },
    {
      "constant": false,
      "inputs": [],
      "name": "acceptAuth",
      "outputs": [
        {
          "name": "",
          "type": "bool"
        }
      ],
      "payable": false,
      "stateMutability": "nonpayable",
      "type": "function"
    },
    {
      "constant": true,
      "inputs": [],
      "name": "authorized",
      "outputs": [
        {
          "name": "",
          "type": "address"
        }
      ],
      "payable": false,
      "stateMutability": "view",
      "type": "function"
    },
    {
      "inputs": [],
      "payable": false,
      "stateMutability": "nonpayable",
      "type": "constructor"
    },
    {
      "anonymous": false,
      "inputs": [
        {
          "indexed": false,
          "name": "val",
          "type": "uint256"
        },
        {
          "indexed": false,
          "name": "addr",
          "type": "address"
        }
      ],
      "name": "POP",
      "type": "event"
    },
    {
      "constant": true,
      "inputs": [],
      "name": "isEmpty",
      "outputs": [
        {
          "name": "",
          "type": "bool"
        }
      ],
      "payable": false,
      "stateMutability": "view",
      "type": "function"
    },
    {
      "constant": true,
      "inputs": [],
      "name": "peek",
      "outputs": [
        {
          "name": "",
          "type": "uint256"
        },
        {
          "name": "",
          "type": "address"
        }
      ],
      "payable": false,
      "stateMutability": "view",
      "type": "function"
    },
    {
      "constant": true,
      "inputs": [
        {
          "name": "_idx",
          "type": "uint256"
        }
      ],
      "name": "getAtIndex",
      "outputs": [
        {
          "name": "",
          "type": "uint256"
        },
        {
          "name": "",
          "type": "address"
        }
      ],
      "payable": false,
      "stateMutability": "view",
      "type": "function"
    },
    {
      "constant": false,
      "inputs": [
        {
          "name": "_priority",
          "type": "uint256"
        },
        {
          "name": "_tn",
          "type": "address"
        }
      ],
      "name": "insert",
      "outputs": [
        {
          "name": "",
          "type": "bool"
        }
      ],
      "payable": false,
      "stateMutability": "nonpayable",
      "type": "function"
    },
    {
      "constant": false,
      "inputs": [],
      "name": "pop",
      "outputs": [
        {
          "name": "retVal",
          "type": "uint256"
        },
        {
          "name": "retAddr",
          "type": "address"
        }
      ],
      "payable": false,
      "stateMutability": "nonpayable",
      "type": "function"
    }
  ],
  "bytecode": "0x6060604052341561000f57600080fd5b336000806101000a81548173ffffffffffffffffffffffffffffffffffffffff021916908373ffffffffffffffffffffffffffffffffffffffff160217905550610e6d8061005e6000396000f300606060405260043610610099576000357c0100000000000000000000000000000000000000000000000000000000900463ffffffff168063074dd09b1461009e57806318044b9a146100f85780631b26aafd1461014d5780632eeb1326146101b75780633a652d2714610208578063456cb7c61461023557806359e02dd71461028a578063681fe70c146102e6578063a4ece52c14610313575b600080fd5b34156100a957600080fd5b6100de600480803590602001909190803573ffffffffffffffffffffffffffffffffffffffff1690602001909190505061036f565b604051808215151515815260200191505060405180910390f35b341561010357600080fd5b61010b61049d565b604051808273ffffffffffffffffffffffffffffffffffffffff1673ffffffffffffffffffffffffffffffffffffffff16815260200191505060405180910390f35b341561015857600080fd5b61016e60048080359060200190919050506104c3565b604051808381526020018273ffffffffffffffffffffffffffffffffffffffff1673ffffffffffffffffffffffffffffffffffffffff1681526020019250505060405180910390f35b34156101c257600080fd5b6101ee600480803573ffffffffffffffffffffffffffffffffffffffff16906020019091905050610542565b604051808215151515815260200191505060405180910390f35b341561021357600080fd5b61021b6105e9565b604051808215151515815260200191505060405180910390f35b341561024057600080fd5b6102486106b3565b604051808273ffffffffffffffffffffffffffffffffffffffff1673ffffffffffffffffffffffffffffffffffffffff16815260200191505060405180910390f35b341561029557600080fd5b61029d6106d8565b604051808381526020018273ffffffffffffffffffffffffffffffffffffffff1673ffffffffffffffffffffffffffffffffffffffff1681526020019250505060405180910390f35b34156102f157600080fd5b6102f961075b565b604051808215151515815260200191505060405180910390f35b341561031e57600080fd5b610326610767565b604051808381526020018273ffffffffffffffffffffffffffffffffffffffff1673ffffffffffffffffffffffffffffffffffffffff1681526020019250505060405180910390f35b60008060009054906101000a900473ffffffffffffffffffffffffffffffffffffffff1673ffffffffffffffffffffffffffffffffffffffff163373ffffffffffffffffffffffffffffffffffffffff161415156103cc57600080fd5b600280548060010182816103e09190610d8f565b9160005260206000209060020201600060408051908101604052808673ffffffffffffffffffffffffffffffffffffffff16815260200187815250909190915060008201518160000160006101000a81548173ffffffffffffffffffffffffffffffffffffffff021916908373ffffffffffffffffffffffffffffffffffffffff160217905550602082015181600101555050506001600360008282540192505081905550610493600160035403610979565b6001905092915050565b600160009054906101000a900473ffffffffffffffffffffffffffffffffffffffff1681565b600080600354831015156104d65761053d565b6002838154811015156104e557fe5b90600052602060002090600202016001015460028481548110151561050657fe5b906000526020600020906002020160000160009054906101000a900473ffffffffffffffffffffffffffffffffffffffff16915091505b915091565b60008060009054906101000a900473ffffffffffffffffffffffffffffffffffffffff1673ffffffffffffffffffffffffffffffffffffffff163373ffffffffffffffffffffffffffffffffffffffff1614151561059f57600080fd5b81600160006101000a81548173ffffffffffffffffffffffffffffffffffffffff021916908373ffffffffffffffffffffffffffffffffffffffff16021790555060019050919050565b6000600160009054906101000a900473ffffffffffffffffffffffffffffffffffffffff1673ffffffffffffffffffffffffffffffffffffffff163373ffffffffffffffffffffffffffffffffffffffff1614151561064757600080fd5b600160006101000a81549073ffffffffffffffffffffffffffffffffffffffff0219169055336000806101000a81548173ffffffffffffffffffffffffffffffffffffffff021916908373ffffffffffffffffffffffffffffffffffffffff1602179055506001905090565b6000809054906101000a900473ffffffffffffffffffffffffffffffffffffffff1681565b6000806106e361075b565b1515156106ef57600080fd5b600260008154811015156106ff57fe5b9060005260206000209060020201600101546002600081548110151561072157fe5b906000526020600020906002020160000160009054906101000a900473ffffffffffffffffffffffffffffffffffffffff16915091509091565b60008060035414905090565b6000806000809054906101000a900473ffffffffffffffffffffffffffffffffffffffff1673ffffffffffffffffffffffffffffffffffffffff163373ffffffffffffffffffffffffffffffffffffffff161415156107c557600080fd5b6107cd6106d8565b809250819350505060026001600354038154811015156107e957fe5b90600052602060002090600202016002600081548110151561080757fe5b90600052602060002090600202016000820160009054906101000a900473ffffffffffffffffffffffffffffffffffffffff168160000160006101000a81548173ffffffffffffffffffffffffffffffffffffffff021916908373ffffffffffffffffffffffffffffffffffffffff16021790555060018201548160010155905050600260016003540381548110151561089d57fe5b9060005260206000209060020201600080820160006101000a81549073ffffffffffffffffffffffffffffffffffffffff0219169055600182016000905550506001600354036003819055506108f36000610b47565b6001600280549050036002816109099190610dc1565b507f0d18872f6bc15a3afe92b2fba619660c53cf36700235f952be9efe7441737ea18282604051808381526020018273ffffffffffffffffffffffffffffffffffffffff1673ffffffffffffffffffffffffffffffffffffffff1681526020019250505060405180910390a19091565b600080600083925061098a836104c3565b915091505b6000831180156109c9575081600280858115156109a857fe5b048154811015156109b557fe5b906000526020600020906002020160010154105b15610a9b57600280848115156109db57fe5b048154811015156109e857fe5b9060005260206000209060020201600284815481101515610a0557fe5b90600052602060002090600202016000820160009054906101000a900473ffffffffffffffffffffffffffffffffffffffff168160000160006101000a81548173ffffffffffffffffffffffffffffffffffffffff021916908373ffffffffffffffffffffffffffffffffffffffff16021790555060018201548160010155905050600283811515610a9357fe5b04925061098f565b8383141515610b415760408051908101604052808273ffffffffffffffffffffffffffffffffffffffff16815260200183815250600284815481101515610ade57fe5b906000526020600020906002020160008201518160000160006101000a81548173ffffffffffffffffffffffffffffffffffffffff021916908373ffffffffffffffffffffffffffffffffffffffff160217905550602082015181600101559050505b50505050565b60008060008060008086955060018660020201935060018401925060035484108015610bb25750600286815481101515610b7d57fe5b906000526020600020906002020160010154600285815481101515610b9e57fe5b906000526020600020906002020160010154115b15610bbf57839450610bc3565b8594505b60035483108015610c135750600285815481101515610bde57fe5b906000526020600020906002020160010154600284815481101515610bff57fe5b906000526020600020906002020160010154115b15610c1c578294505b8585141515610d8657610c2e866104c3565b91509150600285815481101515610c4157fe5b9060005260206000209060020201600287815481101515610c5e57fe5b90600052602060002090600202016000820160009054906101000a900473ffffffffffffffffffffffffffffffffffffffff168160000160006101000a81548173ffffffffffffffffffffffffffffffffffffffff021916908373ffffffffffffffffffffffffffffffffffffffff1602179055506001820154816001015590505060408051908101604052808273ffffffffffffffffffffffffffffffffffffffff16815260200183815250600286815481101515610d1a57fe5b906000526020600020906002020160008201518160000160006101000a81548173ffffffffffffffffffffffffffffffffffffffff021916908373ffffffffffffffffffffffffffffffffffffffff16021790555060208201518160010155905050610d8585610b47565b5b50505050505050565b815481835581811511610dbc57600202816002028360005260206000209182019101610dbb9190610df3565b5b505050565b815481835581811511610dee57600202816002028360005260206000209182019101610ded9190610df3565b5b505050565b610e3e91905b80821115610e3a57600080820160006101000a81549073ffffffffffffffffffffffffffffffffffffffff0219169055600182016000905550600201610df9565b5090565b905600a165627a7a723058203ceaf790bcc6aadec5b48c7efb91c6f9234f7292ebaf6856c69c7719f9d1d8270029",
  "source": "pragma solidity ^0.4.21;\n\nimport \"./Auth.sol\";\n\n/**\n * PriorityQueue\n * Cribbed from https://github.com/omisego/plasma-mvp/blob/master/plasma/root_chain/contracts/DataStructures/PriorityQueue.sol\n * Changed to be max value heap instead of min value, and use the `Timenode` struct.\n */\n\ncontract PriorityQueue is Auth {\n\n    struct Timenode {\n        address at;\n        uint256 bond;\n    }\n\n    Timenode[] heap;\n    uint256 size;\n\n    function PriorityQueue() public {}\n\n    // Return true if the priority queue is empty\n    function isEmpty()\n        public view returns (bool)\n    {\n        return size == 0;\n    }\n\n    // Returns the next in the priority queue\n    function peek()\n        public view returns (uint256, address)\n    {\n        require(!isEmpty());\n        return (heap[0].bond, heap[0].at);\n    }\n\n    function getAtIndex(uint256 _idx)\n        public view returns (uint256, address)\n    {\n        if (_idx >= size) return;\n        return (heap[_idx].bond, heap[_idx].at);\n    }\n\n    function insert(uint256 _priority, address _tn) \n        auth\n        public returns (bool)\n    {\n        heap.push(Timenode({\n            at: _tn,\n            bond: _priority\n        }));\n        size += 1; //todo SafeMath\n        percUp(size-1);\n        return true;\n    }\n\n    function percUp(uint256 _i)\n        private\n    {\n        uint256 j = _i;\n\n        var (newVal, newTn) = getAtIndex(j);\n        while(j > 0 && heap[j / 2].bond < newVal) {\n            heap[j] = heap[j/2];\n            j = j/2;\n        }\n        if (j != _i) {\n            heap[j] = Timenode({\n                at: newTn,\n                bond: newVal\n            });\n        }\n    }\n\n    event POP(uint256 val, address addr);\n\n    function pop()\n        auth\n        public returns (uint256 retVal, address retAddr)\n    {\n        (retVal, retAddr) = peek();\n        heap[0] = heap[size-1];\n        delete heap[size-1];\n        size = size - 1; //todo SafeMath\n        percDown(0);\n        heap.length = heap.length -1;\n        POP(retVal, retAddr);\n        // retVal returns\n    }\n\n    function percDown(uint256 _i)\n        private\n    {\n        uint256 j = _i;\n\n        uint256 largest;\n        uint256 left = 2*j+1;\n        uint256 right = left+1;\n\n        if (left < size && heap[left].bond > heap[j].bond) {\n            largest = left;\n        } else {\n            largest = j;\n        }\n\n        if(right < size && heap[right].bond > heap[largest].bond) {\n            largest = right;\n        }\n\n        if (largest != j) {\n            var (newVal, newTn) = getAtIndex(j);\n            heap[j] = heap[largest];\n            heap[largest] = Timenode({\n                at: newTn,\n                bond: newVal\n            });\n            percDown(largest);\n        }\n    }\n}",
  "sourcePath": "/home/logan/Work/v2/EAC-v2/contracts/PriorityQueue.sol",
  "compiler": {
    "name": "solc",
    "version": "0.4.21+commit.dfe3193c.Emscripten.clang"
  },
  "schemaVersion": "2.0.0",
  "updatedAt": "2018-05-01T14:02:31.397Z"
}