{
  "contractName": "ScheduledTransaction",
  "abi": [
    {
      "constant": true,
      "inputs": [],
      "name": "initialized",
      "outputs": [
        {
          "name": "",
          "type": "bool"
        }
      ],
      "payable": false,
      "stateMutability": "view",
      "type": "function"
    },
    {
      "constant": true,
      "inputs": [],
      "name": "executed",
      "outputs": [
        {
          "name": "",
          "type": "bool"
        }
      ],
      "payable": false,
      "stateMutability": "view",
      "type": "function"
    },
    {
      "constant": true,
      "inputs": [],
      "name": "claimingNode",
      "outputs": [
        {
          "name": "",
          "type": "address"
        }
      ],
      "payable": false,
      "stateMutability": "view",
      "type": "function"
    },
    {
      "constant": true,
      "inputs": [],
      "name": "scheduledFrom",
      "outputs": [
        {
          "name": "",
          "type": "address"
        }
      ],
      "payable": false,
      "stateMutability": "view",
      "type": "function"
    },
    {
      "constant": true,
      "inputs": [],
      "name": "owner",
      "outputs": [
        {
          "name": "",
          "type": "address"
        }
      ],
      "payable": false,
      "stateMutability": "view",
      "type": "function"
    },
    {
      "constant": true,
      "inputs": [],
      "name": "cancelled",
      "outputs": [
        {
          "name": "",
          "type": "bool"
        }
      ],
      "payable": false,
      "stateMutability": "view",
      "type": "function"
    },
    {
      "constant": true,
      "inputs": [],
      "name": "successful",
      "outputs": [
        {
          "name": "",
          "type": "bool"
        }
      ],
      "payable": false,
      "stateMutability": "view",
      "type": "function"
    },
    {
      "constant": true,
      "inputs": [],
      "name": "ipfsHash",
      "outputs": [
        {
          "name": "",
          "type": "bytes32"
        }
      ],
      "payable": false,
      "stateMutability": "view",
      "type": "function"
    },
    {
      "constant": true,
      "inputs": [],
      "name": "claimed",
      "outputs": [
        {
          "name": "",
          "type": "bool"
        }
      ],
      "payable": false,
      "stateMutability": "view",
      "type": "function"
    },
    {
      "payable": false,
      "stateMutability": "nonpayable",
      "type": "fallback"
    },
    {
      "constant": false,
      "inputs": [
        {
          "name": "_ipfsHash",
          "type": "bytes32"
        },
        {
          "name": "_owner",
          "type": "address"
        },
        {
          "name": "_scheduledFrom",
          "type": "address"
        },
        {
          "name": "_claimingNode",
          "type": "address"
        }
      ],
      "name": "init",
      "outputs": [],
      "payable": true,
      "stateMutability": "payable",
      "type": "function"
    },
    {
      "constant": true,
      "inputs": [
        {
          "name": "_s",
          "type": "bytes"
        }
      ],
      "name": "checkHash",
      "outputs": [
        {
          "name": "",
          "type": "bool"
        }
      ],
      "payable": false,
      "stateMutability": "view",
      "type": "function"
    },
    {
      "constant": true,
      "inputs": [
        {
          "name": "_serializedTransaction",
          "type": "bytes"
        }
      ],
      "name": "canExecute",
      "outputs": [
        {
          "name": "",
          "type": "bool"
        }
      ],
      "payable": false,
      "stateMutability": "view",
      "type": "function"
    },
    {
      "constant": false,
      "inputs": [
        {
          "name": "_serializedTransaction",
          "type": "bytes"
        }
      ],
      "name": "execute",
      "outputs": [
        {
          "name": "",
          "type": "bool"
        }
      ],
      "payable": false,
      "stateMutability": "nonpayable",
      "type": "function"
    },
    {
      "constant": false,
      "inputs": [],
      "name": "cancel",
      "outputs": [
        {
          "name": "",
          "type": "bool"
        }
      ],
      "payable": false,
      "stateMutability": "nonpayable",
      "type": "function"
    },
    {
      "constant": false,
      "inputs": [
        {
          "name": "_to",
          "type": "address"
        },
        {
          "name": "_data",
          "type": "bytes"
        }
      ],
      "name": "proxy",
      "outputs": [
        {
          "name": "",
          "type": "bool"
        }
      ],
      "payable": true,
      "stateMutability": "payable",
      "type": "function"
    }
  ],
  "bytecode": "0x60606040526000600260006101000a81548173ffffffffffffffffffffffffffffffffffffffff021916908373ffffffffffffffffffffffffffffffffffffffff1602179055506000600260146101000a81548160ff0219169083151502179055506000600260156101000a81548160ff0219169083151502179055506000600360006101000a81548173ffffffffffffffffffffffffffffffffffffffff021916908373ffffffffffffffffffffffffffffffffffffffff1602179055506000600360146101000a81548160ff0219169083151502179055506000600360156101000a81548160ff0219169083151502179055506000600360166101000a81548160ff021916908315150217905550341561011a57600080fd5b61120a806101296000396000f3006060604052600436106100db576000357c0100000000000000000000000000000000000000000000000000000000900463ffffffff16806309c5eabe146100eb578063158ef93e1461016057806331a38c891461018d5780636c5be56b146101ba57806378108f521461022f578063882d7a82146102845780638da5cb5b146102d95780639a82a09a1461032e5780639a9e3fd81461035b578063a0304e4c14610388578063be6d055a14610401578063c623674f1461048a578063e834a834146104bb578063ea8a1af0146104e8578063faeb496814610515575b34156100e657600080fd5b600080fd5b34156100f657600080fd5b610146600480803590602001908201803590602001908080601f0160208091040260200160405190810160405280939291908181526020018383808284378201915050505050509190505061058a565b604051808215151515815260200191505060405180910390f35b341561016b57600080fd5b6101736109e7565b604051808215151515815260200191505060405180910390f35b341561019857600080fd5b6101a06109fa565b604051808215151515815260200191505060405180910390f35b34156101c557600080fd5b610215600480803590602001908201803590602001908080601f01602080910402602001604051908101604052809392919081815260200183838082843782019150505050505091905050610a0d565b604051808215151515815260200191505060405180910390f35b341561023a57600080fd5b610242610a73565b604051808273ffffffffffffffffffffffffffffffffffffffff1673ffffffffffffffffffffffffffffffffffffffff16815260200191505060405180910390f35b341561028f57600080fd5b610297610a99565b604051808273ffffffffffffffffffffffffffffffffffffffff1673ffffffffffffffffffffffffffffffffffffffff16815260200191505060405180910390f35b34156102e457600080fd5b6102ec610abf565b604051808273ffffffffffffffffffffffffffffffffffffffff1673ffffffffffffffffffffffffffffffffffffffff16815260200191505060405180910390f35b341561033957600080fd5b610341610ae5565b604051808215151515815260200191505060405180910390f35b341561036657600080fd5b61036e610af8565b604051808215151515815260200191505060405180910390f35b6103ff60048080356000191690602001909190803573ffffffffffffffffffffffffffffffffffffffff1690602001909190803573ffffffffffffffffffffffffffffffffffffffff1690602001909190803573ffffffffffffffffffffffffffffffffffffffff16906020019091905050610b0b565b005b610470600480803573ffffffffffffffffffffffffffffffffffffffff1690602001909190803590602001908201803590602001908080601f01602080910402602001604051908101604052809392919081815260200183838082843782019150505050505091905050610c16565b604051808215151515815260200191505060405180910390f35b341561049557600080fd5b61049d610d1f565b60405180826000191660001916815260200191505060405180910390f35b34156104c657600080fd5b6104ce610d25565b604051808215151515815260200191505060405180910390f35b34156104f357600080fd5b6104fb610d38565b604051808215151515815260200191505060405180910390f35b341561052057600080fd5b610570600480803590602001908201803590602001908080601f01602080910402602001604051908101604052809392919081815260200183838082843782019150505050505091905050610e84565b604051808215151515815260200191505060405180910390f35b6000806000806000806000806000806105a16111ca565b6000806105ad8e610e84565b15156105b857600080fd5b6105c18e610a0d565b15156105cc57600080fd5b60208e01519b5060408e01519a5060608e0151995060808e0151985060a08e0151975060c08e0151965060e08e015195506101008e015194506101208e015193506106198e610160611023565b92506161a86202bf208a01035a1015151561063357600080fd5b600360149054906101000a900460ff1615151561064f57600080fd5b61065a8c8888611062565b151561066557600080fd5b600260159054906101000a900460ff161561074a57600360009054906101000a900473ffffffffffffffffffffffffffffffffffffffff1673ffffffffffffffffffffffffffffffffffffffff163373ffffffffffffffffffffffffffffffffffffffff161415156106ec576106dc8c88886110b2565b15156106e757600080fd5b610749565b600360009054906101000a900473ffffffffffffffffffffffffffffffffffffffff1673ffffffffffffffffffffffffffffffffffffffff163373ffffffffffffffffffffffffffffffffffffffff1614151561074857600080fd5b5b5b873a14151561075857600080fd5b6001600360146101000a81548160ff0219169083151502179055508a73ffffffffffffffffffffffffffffffffffffffff168a8a908560405180828051906020019080838360005b838110156107bb5780820151818401526020810190506107a0565b50505050905090810190601f1680156107e85780820380516001836020036101000a031916815260200191505b50915050600060405180830381858888f19350505050600360156101000a81548160ff0219169083151502179055503391508173ffffffffffffffffffffffffffffffffffffffff166108fc869081150290604051600060405180830381858888f19350505050151561085a57600080fd5b600160009054906101000a900473ffffffffffffffffffffffffffffffffffffffff1673ffffffffffffffffffffffffffffffffffffffff1663469048406040518163ffffffff167c0100000000000000000000000000000000000000000000000000000000028152600401602060405180830381600087803b15156108df57600080fd5b5af115156108ec57600080fd5b50505060405180519050905060008173ffffffffffffffffffffffffffffffffffffffff16141515610959578073ffffffffffffffffffffffffffffffffffffffff166108fc859081150290604051600060405180830381858888f19350505050151561095857600080fd5b5b600260009054906101000a900473ffffffffffffffffffffffffffffffffffffffff1673ffffffffffffffffffffffffffffffffffffffff166108fc3073ffffffffffffffffffffffffffffffffffffffff16319081150290604051600060405180830381858888f1935050505015156109d257600080fd5b60019c50505050505050505050505050919050565b600260149054906101000a900460ff1681565b600360149054906101000a900460ff1681565b600080610a186111ca565b610140840151915060008273ffffffffffffffffffffffffffffffffffffffff161415610a485760019250610a6c565b610a5484610180611023565b905060018002610a648383611104565b600019161492505b5050919050565b600360009054906101000a900473ffffffffffffffffffffffffffffffffffffffff1681565b600160009054906101000a900473ffffffffffffffffffffffffffffffffffffffff1681565b600260009054906101000a900473ffffffffffffffffffffffffffffffffffffffff1681565b600360169054906101000a900460ff1681565b600360159054906101000a900460ff1681565b600260149054906101000a900460ff16151515610b2757600080fd5b836000816000191690555082600260006101000a81548173ffffffffffffffffffffffffffffffffffffffff021916908373ffffffffffffffffffffffffffffffffffffffff16021790555081600160006101000a81548173ffffffffffffffffffffffffffffffffffffffff021916908373ffffffffffffffffffffffffffffffffffffffff16021790555080600360006101000a81548173ffffffffffffffffffffffffffffffffffffffff021916908373ffffffffffffffffffffffffffffffffffffffff1602179055506001600260146101000a81548160ff02191690831515021790555050505050565b6000600260009054906101000a900473ffffffffffffffffffffffffffffffffffffffff1673ffffffffffffffffffffffffffffffffffffffff163373ffffffffffffffffffffffffffffffffffffffff16141515610c7457600080fd5b600360149054906101000a900460ff161515610c8f57600080fd5b8273ffffffffffffffffffffffffffffffffffffffff16348360405180828051906020019080838360005b83811015610cd5578082015181840152602081019050610cba565b50505050905090810190601f168015610d025780820380516001836020036101000a031916815260200191505b5091505060006040518083038185875af192505050905092915050565b60005481565b600260159054906101000a900460ff1681565b6000600260009054906101000a900473ffffffffffffffffffffffffffffffffffffffff1673ffffffffffffffffffffffffffffffffffffffff163373ffffffffffffffffffffffffffffffffffffffff16141515610d9657600080fd5b600260149054906101000a900460ff161515610db157600080fd5b600360169054906101000a900460ff16151515610dcd57600080fd5b600360149054906101000a900460ff16151515610de957600080fd5b6001600360166101000a81548160ff021916908315150217905550600260009054906101000a900473ffffffffffffffffffffffffffffffffffffffff1673ffffffffffffffffffffffffffffffffffffffff166108fc3073ffffffffffffffffffffffffffffffffffffffff16319081150290604051600060405180830381858888f193505050501515610e7d57600080fd5b6001905090565b600080600160009054906101000a900473ffffffffffffffffffffffffffffffffffffffff1673ffffffffffffffffffffffffffffffffffffffff1663d7959cf96040518163ffffffff167c0100000000000000000000000000000000000000000000000000000000028152600401602060405180830381600087803b1515610f0c57600080fd5b5af11515610f1957600080fd5b5050506040518051905073ffffffffffffffffffffffffffffffffffffffff166354f0cbac846040518263ffffffff167c01000000000000000000000000000000000000000000000000000000000281526004018080602001828103825283818151815260200191508051906020019080838360005b83811015610faa578082015181840152602081019050610f8f565b50505050905090810190601f168015610fd75780820380516001836020036101000a031916815260200191505b5092505050602060405180830381600087803b1515610ff557600080fd5b5af1151561100257600080fd5b50505060405180519050905060005460001916816000191614915050919050565b61102b6111ca565b60008060008486015192506020830191506020820190508186015191508086019050611057818361112c565b935050505092915050565b600060018414156110855782431015801561107e575081830143105b90506110ab565b60028414156110a65782421015801561109f575081830142105b90506110ab565b600090505b9392505050565b600060018414156110d6576002828115156110c957fe5b04830143101590506110fd565b60028414156110f8576002828115156110eb57fe5b04830142101590506110fd565b600090505b9392505050565b6000604051602081845160208601600088611388f15080519150602081016040525092915050565b6111346111ca565b61113c6111ca565b60008360405180591061114c5750595b9080825280601f01601f1916602001820160405250915060208201905061117481868661117f565b819250505092915050565b60005b6020821015156111a75782518452602084019350602083019250602082039150611182565b6001826020036101000a0390508019835116818551168181178652505050505050565b6020604051908101604052806000815250905600a165627a7a72305820727b91c7523cd927fe00f3491ae26782a87718807453424a39b4f452545ec4ef0029",
  "source": "pragma solidity ^0.4.19;\n\nimport \"./IPFS.sol\";\nimport \"./Scheduler.sol\";\n\ncontract ScheduledTransaction {\n    bytes32 public ipfsHash;\n    address public scheduledFrom;\n\n    address public owner = 0x0;\n\n    // will switch to true when initialized (prevents re-initialization)\n    bool public initialized = false;\n    \n    // will switch to true when claimed\n    bool public claimed = false;\n    address public claimingNode = 0x0;\n\n    // will switch to true when executed\n    bool public executed = false;\n\n    // will switch to true if successful\n    bool public successful = false;\n\n    // will switch to true if cancelled\n    bool public cancelled = false;\n\n    // disallow receiving ether\n    function() public {revert();}\n\n    function init(\n        bytes32 _ipfsHash,\n        address _owner,\n        address _scheduledFrom,\n        address _claimingNode\n    ) public payable {\n        require(!initialized);\n        ipfsHash = _ipfsHash;\n        owner = _owner;\n        scheduledFrom = _scheduledFrom;\n        claimingNode = _claimingNode;\n        initialized = true;\n    }\n\n    function checkHash(bytes _s)\n        public constant returns (bool)\n    {\n        bytes32 checkHash = IPFS(Scheduler(scheduledFrom).ipfs()).generateHash(_s);\n        return checkHash == ipfsHash;\n    }\n\n    function callWithData(address dest, bytes data) \n        private returns (bytes32 c)\n    {\n        assembly {\n            let freemem := mload(0x40)\n            \n            pop(\n            call(      \n                5000, //5k gas\n                dest, //To addr\n                0,    //No value\n                add(data, 0x20),    //Inputs are stored at location x\n                mload(data),\n                freemem,    //Store output over input (saves space)\n                0x20 //Outputs are 32 bytes long\n            )\n            )\n    \n            c := mload(freemem) //Assign output value to c\n            mstore(0x40, add(freemem, 0x20)) // Set storage pointer to empty space\n        }\n    }\n\n    function checkInExecutionWindow(\n        uint256 temporalUnit,\n        uint256 executionWindowStart,\n        uint256 executionWindowLength\n    ) private view returns (bool) {\n        if (temporalUnit == 1) {\n            return (\n                block.number >= executionWindowStart &&\n                block.number < executionWindowStart + executionWindowLength\n            );\n        } else if (temporalUnit == 2) {\n            return (\n                block.timestamp >= executionWindowStart &&\n                block.timestamp < executionWindowStart + executionWindowLength\n            );\n        } else { return false; }\n    }\n\n    function checkSecondHalfOfExecutionWindow(\n        uint256 temporalUnit,\n        uint256 executionWindowStart,\n        uint256 executionWindowLength\n    ) private view returns (bool) {\n        if (temporalUnit == 1) {\n            return block.number >= executionWindowStart + executionWindowLength /2;\n        } else if (temporalUnit == 2) {\n            return block.timestamp >= executionWindowStart + executionWindowLength /2;\n        } else { return false; }\n    }\n\n    function canExecute(bytes _serializedTransaction) public view returns(bool) {\n        address conditionalDest;\n\n        assembly {\n            conditionalDest := mload(add(_serializedTransaction, 320))\n        }\n\n        if (conditionalDest == 0x0) { //no conditional data\n            return true;\n        }\n\n        bytes memory conditionalCallData = getCallData(_serializedTransaction, 384);\n\n        return callWithData(conditionalDest, conditionalCallData) == 1;\n    }\n\n    function execute(bytes _serializedTransaction)\n        public returns (bool)\n    {\n        // uint256 startGas = msg.gas;\n        require(checkHash(_serializedTransaction));\n        require(canExecute(_serializedTransaction));\n\n        uint256 temporalUnit;\n        address recipient;\n        uint256 value;\n        uint256 callGas;\n        uint256 gasPrice;\n        uint256 executionWindowStart;\n        uint256 executionWindowLength;\n        uint256 bounty;\n        uint256 fee;\n\n        assembly {\n            temporalUnit := mload(add(_serializedTransaction, 32))\n            recipient := mload(add(_serializedTransaction, 64))\n            value := mload(add(_serializedTransaction, 96))\n            callGas := mload(add(_serializedTransaction, 128))\n            gasPrice := mload(add(_serializedTransaction, 160))\n            executionWindowStart := mload(add(_serializedTransaction, 192))\n            executionWindowLength := mload(add(_serializedTransaction, 224))\n            bounty := mload(add(_serializedTransaction, 256))\n            fee := mload(add(_serializedTransaction, 288))\n        }\n\n        bytes memory callData = getCallData(_serializedTransaction, 352);\n\n        // check gasleft() >= requiredGas\n        require(gasleft() >= callGas + 180000 - 25000);\n        // check that this hasn't been executed yet\n        require(!executed);\n        // check in execution window\n        require(\n            checkInExecutionWindow(\n                temporalUnit, \n                executionWindowStart, \n                executionWindowLength\n            )\n        );\n        // if claimed, check that claimer is executing\n        if (claimed) {\n            if (msg.sender != claimingNode) {\n                require(\n                    checkSecondHalfOfExecutionWindow(\n                        temporalUnit,\n                        executionWindowStart,\n                        executionWindowLength\n                    )\n                );\n            } else {\n                require(msg.sender == claimingNode);\n            }\n        }\n\n        // check gasPrice\n        require(tx.gasprice == gasPrice);\n\n        // mark that this has been executed\n        executed = true;\n\n        successful = recipient.call.value(value).gas(callGas)(callData);\n\n        // check bounty recipient, send bounty\n        address bountyRecipient = msg.sender;\n        bountyRecipient.transfer(bounty);\n\n        //  check fee recipient, send fee\n        address feeRecipient = Scheduler(scheduledFrom).feeRecipient();\n        if (feeRecipient != 0x0) {\n            feeRecipient.transfer(fee);\n        }\n        \n        // send remaining ether back to scheduler\n        owner.transfer(address(this).balance); //todo more checks on this\n\n        return true;\n    }\n\n    function getCallData(bytes _serializedTransaction, uint _startLoc) \n        private view returns (bytes)\n    {\n        uint256 start;\n        assembly {\n            start := mload(add(_serializedTransaction, _startLoc))\n        }\n        uint256 len = start + 0x20;\n        uint256 data = len + 0x20;\n        assembly {\n            len := mload(add(_serializedTransaction, len)) // location\n            data := add(_serializedTransaction, data)\n        }\n        return toBytes(data, len);\n    }\n\n    function toBytes(uint256 _ptr, uint256 _len) internal view returns (bytes) {\n        bytes memory ret = new bytes(_len);\n        uint retptr;\n        assembly { retptr := add(ret, 32)  }\n\n        memcpy(retptr, _ptr, _len);\n        return ret;\n    }\n\n    function memcpy(uint256 dest, uint src, uint len) private pure {\n        // Copy word-length chunks while possible\n        for(; len >= 32; len -= 32) {\n            assembly {\n                mstore(dest, mload(src))\n            }\n            dest += 32;\n            src += 32;\n        }\n \n        // Copy remaining bytes\n        uint mask = 256 ** (32 - len) - 1;\n        assembly {\n            let srcpart := and(mload(src), not(mask))\n            let destpart := and(mload(dest), mask)\n            mstore(dest, or(destpart, srcpart))\n        }\n    }\n\n    function cancel()\n        public returns (bool)\n    {\n        // check if msg.sender == owner\n        require(msg.sender == owner);\n        require(initialized);\n        require(!cancelled);\n        require(!executed);\n        cancelled = true;\n        owner.transfer(address(this).balance);\n        return true;\n    }\n\n    // function claim()\n    //     public returns (bool)\n    // {\n    //     if (claimingPool == address(0x0)) { return true; }\n    //     // Gate\n    //     bool canClaim = ClaimingPool(claimingPool).canClaim(msg.sender);\n    //     require(canClaim);\n    //     claimed = true;\n    //     claimingNode = msg.sender;\n    // }\n\n    function proxy(address _to, bytes _data)\n        public payable returns (bool)\n    {\n        require(msg.sender == owner);\n        require(executed); // make sure this is the only check we need\n        return _to.call.value(msg.value)(_data);\n    }\n\n    // pull transactions?\n}",
  "sourcePath": "/home/logan/Work/v2/EAC-v2/contracts/ScheduledTransaction.sol",
  "compiler": {
    "name": "solc",
    "version": "0.4.21+commit.dfe3193c.Emscripten.clang"
  },
  "schemaVersion": "2.0.0",
  "updatedAt": "2018-05-01T14:03:16.897Z"
}