{
  "contractName": "Scheduler",
  "abi": [
    {
      "constant": true,
      "inputs": [],
      "name": "feeRecipient",
      "outputs": [
        {
          "name": "",
          "type": "address"
        }
      ],
      "payable": false,
      "stateMutability": "view",
      "type": "function"
    },
    {
      "constant": true,
      "inputs": [],
      "name": "scheduledTxCore",
      "outputs": [
        {
          "name": "",
          "type": "address"
        }
      ],
      "payable": false,
      "stateMutability": "view",
      "type": "function"
    },
    {
      "constant": true,
      "inputs": [],
      "name": "eventEmitter",
      "outputs": [
        {
          "name": "",
          "type": "address"
        }
      ],
      "payable": false,
      "stateMutability": "view",
      "type": "function"
    },
    {
      "constant": true,
      "inputs": [],
      "name": "ipfs",
      "outputs": [
        {
          "name": "",
          "type": "address"
        }
      ],
      "payable": false,
      "stateMutability": "view",
      "type": "function"
    },
    {
      "inputs": [
        {
          "name": "_eventEmitter",
          "type": "address"
        },
        {
          "name": "_feeRecipient",
          "type": "address"
        },
        {
          "name": "_ipfsLib",
          "type": "address"
        },
        {
          "name": "_scheduledTxCore",
          "type": "address"
        }
      ],
      "payable": false,
      "stateMutability": "nonpayable",
      "type": "constructor"
    },
    {
      "payable": false,
      "stateMutability": "nonpayable",
      "type": "fallback"
    },
    {
      "anonymous": false,
      "inputs": [
        {
          "indexed": true,
          "name": "target",
          "type": "address"
        },
        {
          "indexed": false,
          "name": "clone",
          "type": "address"
        }
      ],
      "name": "CloneCreated",
      "type": "event"
    },
    {
      "constant": false,
      "inputs": [
        {
          "name": "_serializedTransaction",
          "type": "bytes"
        }
      ],
      "name": "schedule",
      "outputs": [
        {
          "name": "scheduledTx",
          "type": "address"
        }
      ],
      "payable": true,
      "stateMutability": "payable",
      "type": "function"
    },
    {
      "constant": false,
      "inputs": [],
      "name": "createTransaction",
      "outputs": [
        {
          "name": "",
          "type": "address"
        }
      ],
      "payable": false,
      "stateMutability": "nonpayable",
      "type": "function"
    }
  ],
  "bytecode": "0x6060604052341561000f57600080fd5b604051608080610a8183398101604052808051906020019091908051906020019091908051906020019091908051906020019091905050836000806101000a81548173ffffffffffffffffffffffffffffffffffffffff021916908373ffffffffffffffffffffffffffffffffffffffff16021790555082600160006101000a81548173ffffffffffffffffffffffffffffffffffffffff021916908373ffffffffffffffffffffffffffffffffffffffff16021790555081600260006101000a81548173ffffffffffffffffffffffffffffffffffffffff021916908373ffffffffffffffffffffffffffffffffffffffff16021790555080600360006101000a81548173ffffffffffffffffffffffffffffffffffffffff021916908373ffffffffffffffffffffffffffffffffffffffff160217905550505050506109258061015c6000396000f300606060405260043610610078576000357c0100000000000000000000000000000000000000000000000000000000900463ffffffff16806346904840146100885780634ad41950146100dd57806397b54cc2146101325780639ff78c3014610187578063d7959cf9146101dc578063db26e34d14610231575b341561008357600080fd5b600080fd5b341561009357600080fd5b61009b6102c3565b604051808273ffffffffffffffffffffffffffffffffffffffff1673ffffffffffffffffffffffffffffffffffffffff16815260200191505060405180910390f35b34156100e857600080fd5b6100f06102e9565b604051808273ffffffffffffffffffffffffffffffffffffffff1673ffffffffffffffffffffffffffffffffffffffff16815260200191505060405180910390f35b341561013d57600080fd5b61014561030f565b604051808273ffffffffffffffffffffffffffffffffffffffff1673ffffffffffffffffffffffffffffffffffffffff16815260200191505060405180910390f35b341561019257600080fd5b61019a610341565b604051808273ffffffffffffffffffffffffffffffffffffffff1673ffffffffffffffffffffffffffffffffffffffff16815260200191505060405180910390f35b34156101e757600080fd5b6101ef610366565b604051808273ffffffffffffffffffffffffffffffffffffffff1673ffffffffffffffffffffffffffffffffffffffff16815260200191505060405180910390f35b610281600480803590602001908201803590602001908080601f0160208091040260200160405190810160405280939291908181526020018383808284378201915050505050509190505061038c565b604051808273ffffffffffffffffffffffffffffffffffffffff1673ffffffffffffffffffffffffffffffffffffffff16815260200191505060405180910390f35b600160009054906101000a900473ffffffffffffffffffffffffffffffffffffffff1681565b600360009054906101000a900473ffffffffffffffffffffffffffffffffffffffff1681565b600061033c600360009054906101000a900473ffffffffffffffffffffffffffffffffffffffff166107c3565b905090565b6000809054906101000a900473ffffffffffffffffffffffffffffffffffffffff1681565b600260009054906101000a900473ffffffffffffffffffffffffffffffffffffffff1681565b60008060008060008060008060428901519650606289015195506082890151945060e28901519350610102890151925082848688028901010191508134101515156103d657600080fd5b600260009054906101000a900473ffffffffffffffffffffffffffffffffffffffff1673ffffffffffffffffffffffffffffffffffffffff166354f0cbac8a6040518263ffffffff167c01000000000000000000000000000000000000000000000000000000000281526004018080602001828103825283818151815260200191508051906020019080838360005b83811015610480578082015181840152602081019050610465565b50505050905090810190601f1680156104ad5780820380516001836020036101000a031916815260200191505b5092505050602060405180830381600087803b15156104cb57600080fd5b5af115156104d857600080fd5b5050506040518051905090506104ec61030f565b975060008873ffffffffffffffffffffffffffffffffffffffff161415151561051457600080fd5b8773ffffffffffffffffffffffffffffffffffffffff1663a0304e4c348333307317b17026c423a988c3d1375252c3021ff32f354c6040518663ffffffff167c01000000000000000000000000000000000000000000000000000000000281526004018085600019166000191681526020018473ffffffffffffffffffffffffffffffffffffffff1673ffffffffffffffffffffffffffffffffffffffff1681526020018373ffffffffffffffffffffffffffffffffffffffff1673ffffffffffffffffffffffffffffffffffffffff1681526020018273ffffffffffffffffffffffffffffffffffffffff1673ffffffffffffffffffffffffffffffffffffffff1681526020019450505050506000604051808303818588803b151561063a57600080fd5b5af1151561064757600080fd5b505050506000809054906101000a900473ffffffffffffffffffffffffffffffffffffffff1673ffffffffffffffffffffffffffffffffffffffff1663eb0d6330898b336040518463ffffffff167c0100000000000000000000000000000000000000000000000000000000028152600401808473ffffffffffffffffffffffffffffffffffffffff1673ffffffffffffffffffffffffffffffffffffffff168152602001806020018373ffffffffffffffffffffffffffffffffffffffff1673ffffffffffffffffffffffffffffffffffffffff168152602001828103825284818151815260200191508051906020019080838360005b8381101561075a57808201518184015260208101905061073f565b50505050905090810190601f1680156107875780820380516001836020036101000a031916815260200191505b50945050505050600060405180830381600087803b15156107a757600080fd5b5af115156107b457600080fd5b50505050505050505050919050565b60006107cd6108e5565b600080606060405190810160405280603e81526020017f600034603b57602f80600f833981f36000368180378080368173bebebebebebe81526020017fbebebebebebebebebebebebebebe5af415602c573d81803e3d81f35b80fd00008152509250846c01000000000000000000000000029150600090505b60148110156108ce57818160148110151561085d57fe5b1a7f0100000000000000000000000000000000000000000000000000000000000000028382601a0181518110151561089157fe5b9060200101907effffffffffffffffffffffffffffffffffffffffffffffffffffffffffffff1916908160001a9053508080600101915050610846565b82516020840181816000f095505050505050919050565b6020604051908101604052806000815250905600a165627a7a723058204dd7ff814cbb0163f4f3cf4dba36e7039c428ea0e2217b9b8290256d51d8578d0029",
  "source": "pragma solidity ^0.4.19;\n\nimport \"./CloneFactory.sol\";\nimport \"./EventEmitter.sol\";\nimport \"./IPFS.sol\";\nimport \"./ScheduledTransaction.sol\";\n\ncontract Scheduler is CloneFactory {\n    function () public {revert();}\n\n    address public eventEmitter;\n    address public feeRecipient;\n    address public ipfs;\n    address public scheduledTxCore;\n\n    function Scheduler(\n        address _eventEmitter,\n        address _feeRecipient,\n        address _ipfsLib,\n        address _scheduledTxCore\n    ) public {\n        eventEmitter = _eventEmitter;\n        feeRecipient = _feeRecipient;\n        ipfs = _ipfsLib;\n        scheduledTxCore = _scheduledTxCore;\n    }\n\n    function schedule(bytes _serializedTransaction) \n        public payable returns (address scheduledTx)\n    {\n        uint256 value;\n        uint256 callGas;\n        uint256 gasPrice;\n        uint256 bounty;\n        uint256 fee;\n\n        assembly {\n            value := mload(add(_serializedTransaction, 66))\n            callGas := mload(add(_serializedTransaction, 98))\n            gasPrice := mload(add(_serializedTransaction, 130))\n            bounty := mload(add(_serializedTransaction, 226))\n            fee := mload(add(_serializedTransaction, 258))\n        }\n\n        uint endowment = value + callGas * gasPrice + bounty + fee;\n        require(msg.value >= endowment);\n\n        bytes32 ipfsHash = IPFS(ipfs).generateHash(_serializedTransaction);\n\n        scheduledTx = createTransaction();\n        require(scheduledTx != 0x0);\n\n        ScheduledTransaction(scheduledTx).init.value(msg.value)(ipfsHash, msg.sender, address(this), address(0x17B17026C423a988C3D1375252C3021ff32F354C));\n\n        // Record on the event emitter\n        EventEmitter(eventEmitter).logNewTransactionScheduled(scheduledTx, _serializedTransaction, msg.sender);\n    }\n\n    function createTransaction() public returns (address) {\n        return createClone(scheduledTxCore);\n    }\n}\n",
  "sourcePath": "/home/logan/Work/v2/EAC-v2/contracts/Scheduler.sol",
  "compiler": {
    "name": "solc",
    "version": "0.4.21+commit.dfe3193c.Emscripten.clang"
  },
  "schemaVersion": "2.0.0",
  "updatedAt": "2018-04-13T10:24:25.408Z"
}