{
  "contractName": "ScheduledTransaction",
  "abi": [
    {
      "constant": true,
      "inputs": [],
      "name": "initialized",
      "outputs": [
        {
          "name": "",
          "type": "bool"
        }
      ],
      "payable": false,
      "stateMutability": "view",
      "type": "function"
    },
    {
      "constant": true,
      "inputs": [],
      "name": "executed",
      "outputs": [
        {
          "name": "",
          "type": "bool"
        }
      ],
      "payable": false,
      "stateMutability": "view",
      "type": "function"
    },
    {
      "constant": true,
      "inputs": [],
      "name": "claimingNode",
      "outputs": [
        {
          "name": "",
          "type": "address"
        }
      ],
      "payable": false,
      "stateMutability": "view",
      "type": "function"
    },
    {
      "constant": true,
      "inputs": [],
      "name": "scheduledFrom",
      "outputs": [
        {
          "name": "",
          "type": "address"
        }
      ],
      "payable": false,
      "stateMutability": "view",
      "type": "function"
    },
    {
      "constant": true,
      "inputs": [],
      "name": "owner",
      "outputs": [
        {
          "name": "",
          "type": "address"
        }
      ],
      "payable": false,
      "stateMutability": "view",
      "type": "function"
    },
    {
      "constant": true,
      "inputs": [],
      "name": "cancelled",
      "outputs": [
        {
          "name": "",
          "type": "bool"
        }
      ],
      "payable": false,
      "stateMutability": "view",
      "type": "function"
    },
    {
      "constant": true,
      "inputs": [],
      "name": "successful",
      "outputs": [
        {
          "name": "",
          "type": "bool"
        }
      ],
      "payable": false,
      "stateMutability": "view",
      "type": "function"
    },
    {
      "constant": true,
      "inputs": [],
      "name": "ipfsHash",
      "outputs": [
        {
          "name": "",
          "type": "bytes32"
        }
      ],
      "payable": false,
      "stateMutability": "view",
      "type": "function"
    },
    {
      "constant": true,
      "inputs": [],
      "name": "claimed",
      "outputs": [
        {
          "name": "",
          "type": "bool"
        }
      ],
      "payable": false,
      "stateMutability": "view",
      "type": "function"
    },
    {
      "payable": false,
      "stateMutability": "nonpayable",
      "type": "fallback"
    },
    {
      "constant": false,
      "inputs": [
        {
          "name": "_ipfsHash",
          "type": "bytes32"
        },
        {
          "name": "_owner",
          "type": "address"
        },
        {
          "name": "_scheduledFrom",
          "type": "address"
        },
        {
          "name": "_claimingNode",
          "type": "address"
        }
      ],
      "name": "init",
      "outputs": [],
      "payable": true,
      "stateMutability": "payable",
      "type": "function"
    },
    {
      "constant": true,
      "inputs": [
        {
          "name": "_s",
          "type": "bytes"
        }
      ],
      "name": "checkHash",
      "outputs": [
        {
          "name": "",
          "type": "bool"
        }
      ],
      "payable": false,
      "stateMutability": "view",
      "type": "function"
    },
    {
      "constant": true,
      "inputs": [
        {
          "name": "_serializedTransaction",
          "type": "bytes"
        }
      ],
      "name": "canExecute",
      "outputs": [
        {
          "name": "",
          "type": "bool"
        }
      ],
      "payable": false,
      "stateMutability": "view",
      "type": "function"
    },
    {
      "constant": false,
      "inputs": [
        {
          "name": "_serializedTransaction",
          "type": "bytes"
        }
      ],
      "name": "execute",
      "outputs": [
        {
          "name": "",
          "type": "bool"
        }
      ],
      "payable": false,
      "stateMutability": "nonpayable",
      "type": "function"
    },
    {
      "constant": false,
      "inputs": [],
      "name": "cancel",
      "outputs": [
        {
          "name": "",
          "type": "bool"
        }
      ],
      "payable": false,
      "stateMutability": "nonpayable",
      "type": "function"
    },
    {
      "constant": false,
      "inputs": [
        {
          "name": "_to",
          "type": "address"
        },
        {
          "name": "_data",
          "type": "bytes"
        }
      ],
      "name": "proxy",
      "outputs": [
        {
          "name": "",
          "type": "bool"
        }
      ],
      "payable": true,
      "stateMutability": "payable",
      "type": "function"
    }
  ],
  "bytecode": "0x60606040526000600260006101000a81548173ffffffffffffffffffffffffffffffffffffffff021916908373ffffffffffffffffffffffffffffffffffffffff1602179055506000600260146101000a81548160ff0219169083151502179055506000600260156101000a81548160ff0219169083151502179055506000600360006101000a81548173ffffffffffffffffffffffffffffffffffffffff021916908373ffffffffffffffffffffffffffffffffffffffff1602179055506000600360146101000a81548160ff0219169083151502179055506000600360156101000a81548160ff0219169083151502179055506000600360166101000a81548160ff021916908315150217905550341561011a57600080fd5b61122d806101296000396000f3006060604052600436106100db576000357c0100000000000000000000000000000000000000000000000000000000900463ffffffff16806309c5eabe146100eb578063158ef93e1461016057806331a38c891461018d5780636c5be56b146101ba57806378108f521461022f578063882d7a82146102845780638da5cb5b146102d95780639a82a09a1461032e5780639a9e3fd81461035b578063a0304e4c14610388578063be6d055a14610401578063c623674f1461048a578063e834a834146104bb578063ea8a1af0146104e8578063faeb496814610515575b34156100e657600080fd5b600080fd5b34156100f657600080fd5b610146600480803590602001908201803590602001908080601f0160208091040260200160405190810160405280939291908181526020018383808284378201915050505050509190505061058a565b604051808215151515815260200191505060405180910390f35b341561016b57600080fd5b61017361098c565b604051808215151515815260200191505060405180910390f35b341561019857600080fd5b6101a061099f565b604051808215151515815260200191505060405180910390f35b34156101c557600080fd5b610215600480803590602001908201803590602001908080601f016020809104026020016040519081016040528093929190818152602001838380828437820191505050505050919050506109b2565b604051808215151515815260200191505060405180910390f35b341561023a57600080fd5b610242610a18565b604051808273ffffffffffffffffffffffffffffffffffffffff1673ffffffffffffffffffffffffffffffffffffffff16815260200191505060405180910390f35b341561028f57600080fd5b610297610a3e565b604051808273ffffffffffffffffffffffffffffffffffffffff1673ffffffffffffffffffffffffffffffffffffffff16815260200191505060405180910390f35b34156102e457600080fd5b6102ec610a64565b604051808273ffffffffffffffffffffffffffffffffffffffff1673ffffffffffffffffffffffffffffffffffffffff16815260200191505060405180910390f35b341561033957600080fd5b610341610a8a565b604051808215151515815260200191505060405180910390f35b341561036657600080fd5b61036e610a9d565b604051808215151515815260200191505060405180910390f35b6103ff60048080356000191690602001909190803573ffffffffffffffffffffffffffffffffffffffff1690602001909190803573ffffffffffffffffffffffffffffffffffffffff1690602001909190803573ffffffffffffffffffffffffffffffffffffffff16906020019091905050610ab0565b005b610470600480803573ffffffffffffffffffffffffffffffffffffffff1690602001909190803590602001908201803590602001908080601f01602080910402602001604051908101604052809392919081815260200183838082843782019150505050505091905050610bbb565b604051808215151515815260200191505060405180910390f35b341561049557600080fd5b61049d610cc4565b60405180826000191660001916815260200191505060405180910390f35b34156104c657600080fd5b6104ce610cca565b604051808215151515815260200191505060405180910390f35b34156104f357600080fd5b6104fb610cdd565b604051808215151515815260200191505060405180910390f35b341561052057600080fd5b610570600480803590602001908201803590602001908080601f01602080910402602001604051908101604052809392919081815260200183838082843782019150505050505091905050610e29565b604051808215151515815260200191505060405180910390f35b6000806000806000806000806000806105a16111ed565b60006105ac8d610e29565b15156105b757600080fd5b6105c08d6109b2565b15156105cb57600080fd5b60208d01519a5060408d0151995060608d0151985060808d0151975060a08d0151965060c08d0151955060e08d015194506101008d015193506101208d015192506106188d610160610fc8565b91506161a86202bf208901035a1015151561063257600080fd5b600360149054906101000a900460ff1615151561064e57600080fd5b6106598b8787611007565b151561066457600080fd5b600260159054906101000a900460ff161561074957600360009054906101000a900473ffffffffffffffffffffffffffffffffffffffff1673ffffffffffffffffffffffffffffffffffffffff163373ffffffffffffffffffffffffffffffffffffffff161415156106eb576106db8b8787611057565b15156106e657600080fd5b610748565b600360009054906101000a900473ffffffffffffffffffffffffffffffffffffffff1673ffffffffffffffffffffffffffffffffffffffff163373ffffffffffffffffffffffffffffffffffffffff1614151561074757600080fd5b5b5b863a14151561075757600080fd5b6001600360146101000a81548160ff0219169083151502179055508973ffffffffffffffffffffffffffffffffffffffff168989908460405180828051906020019080838360005b838110156107ba57808201518184015260208101905061079f565b50505050905090810190601f1680156107e75780820380516001836020036101000a031916815260200191505b50915050600060405180830381858888f19350505050600360156101000a81548160ff02191690831515021790555061082033856110a9565b151561082b57600080fd5b600160009054906101000a900473ffffffffffffffffffffffffffffffffffffffff1673ffffffffffffffffffffffffffffffffffffffff1663469048406040518163ffffffff167c0100000000000000000000000000000000000000000000000000000000028152600401602060405180830381600087803b15156108b057600080fd5b5af115156108bd57600080fd5b50505060405180519050905060008173ffffffffffffffffffffffffffffffffffffffff161415156108ff576108f381846110e8565b15156108fe57600080fd5b5b600260009054906101000a900473ffffffffffffffffffffffffffffffffffffffff1673ffffffffffffffffffffffffffffffffffffffff166108fc3073ffffffffffffffffffffffffffffffffffffffff16319081150290604051600060405180830381858888f19350505050151561097857600080fd5b60019b505050505050505050505050919050565b600260149054906101000a900460ff1681565b600360149054906101000a900460ff1681565b6000806109bd6111ed565b610140840151915060008273ffffffffffffffffffffffffffffffffffffffff1614156109ed5760019250610a11565b6109f984610180610fc8565b905060018002610a098383611127565b600019161492505b5050919050565b600360009054906101000a900473ffffffffffffffffffffffffffffffffffffffff1681565b600160009054906101000a900473ffffffffffffffffffffffffffffffffffffffff1681565b600260009054906101000a900473ffffffffffffffffffffffffffffffffffffffff1681565b600360169054906101000a900460ff1681565b600360159054906101000a900460ff1681565b600260149054906101000a900460ff16151515610acc57600080fd5b836000816000191690555082600260006101000a81548173ffffffffffffffffffffffffffffffffffffffff021916908373ffffffffffffffffffffffffffffffffffffffff16021790555081600160006101000a81548173ffffffffffffffffffffffffffffffffffffffff021916908373ffffffffffffffffffffffffffffffffffffffff16021790555080600360006101000a81548173ffffffffffffffffffffffffffffffffffffffff021916908373ffffffffffffffffffffffffffffffffffffffff1602179055506001600260146101000a81548160ff02191690831515021790555050505050565b6000600260009054906101000a900473ffffffffffffffffffffffffffffffffffffffff1673ffffffffffffffffffffffffffffffffffffffff163373ffffffffffffffffffffffffffffffffffffffff16141515610c1957600080fd5b600360149054906101000a900460ff161515610c3457600080fd5b8273ffffffffffffffffffffffffffffffffffffffff16348360405180828051906020019080838360005b83811015610c7a578082015181840152602081019050610c5f565b50505050905090810190601f168015610ca75780820380516001836020036101000a031916815260200191505b5091505060006040518083038185875af192505050905092915050565b60005481565b600260159054906101000a900460ff1681565b6000600260009054906101000a900473ffffffffffffffffffffffffffffffffffffffff1673ffffffffffffffffffffffffffffffffffffffff163373ffffffffffffffffffffffffffffffffffffffff16141515610d3b57600080fd5b600260149054906101000a900460ff161515610d5657600080fd5b600360169054906101000a900460ff16151515610d7257600080fd5b600360149054906101000a900460ff16151515610d8e57600080fd5b6001600360166101000a81548160ff021916908315150217905550600260009054906101000a900473ffffffffffffffffffffffffffffffffffffffff1673ffffffffffffffffffffffffffffffffffffffff166108fc3073ffffffffffffffffffffffffffffffffffffffff16319081150290604051600060405180830381858888f193505050501515610e2257600080fd5b6001905090565b600080600160009054906101000a900473ffffffffffffffffffffffffffffffffffffffff1673ffffffffffffffffffffffffffffffffffffffff1663d7959cf96040518163ffffffff167c0100000000000000000000000000000000000000000000000000000000028152600401602060405180830381600087803b1515610eb157600080fd5b5af11515610ebe57600080fd5b5050506040518051905073ffffffffffffffffffffffffffffffffffffffff166354f0cbac846040518263ffffffff167c01000000000000000000000000000000000000000000000000000000000281526004018080602001828103825283818151815260200191508051906020019080838360005b83811015610f4f578082015181840152602081019050610f34565b50505050905090810190601f168015610f7c5780820380516001836020036101000a031916815260200191505b5092505050602060405180830381600087803b1515610f9a57600080fd5b5af11515610fa757600080fd5b50505060405180519050905060005460001916816000191614915050919050565b610fd06111ed565b60008060008486015192506020830191506020820190508186015191508086019050610ffc818361114f565b935050505092915050565b6000600184141561102a57824310158015611023575081830143105b9050611050565b600284141561104b57824210158015611044575081830142105b9050611050565b600090505b9392505050565b6000600184141561107b5760028281151561106e57fe5b04830143101590506110a2565b600284141561109d5760028281151561109057fe5b04830142101590506110a2565b600090505b9392505050565b60008273ffffffffffffffffffffffffffffffffffffffff166108fc839081150290604051600060405180830381858888f19350505050905092915050565b60008273ffffffffffffffffffffffffffffffffffffffff166108fc839081150290604051600060405180830381858888f19350505050905092915050565b6000604051602081845160208601600088611388f15080519150602081016040525092915050565b6111576111ed565b61115f6111ed565b60008360405180591061116f5750595b9080825280601f01601f191660200182016040525091506020820190506111978186866111a2565b819250505092915050565b60005b6020821015156111ca57825184526020840193506020830192506020820391506111a5565b6001826020036101000a0390508019835116818551168181178652505050505050565b6020604051908101604052806000815250905600a165627a7a7230582031cecd709f00269dd65800cb7740bce52c221e3111cb35292de68ee46308413f0029",
  "source": "pragma solidity ^0.4.19;\n\nimport \"./IPFS.sol\";\nimport \"./Scheduler.sol\";\n\ncontract ScheduledTransaction {\n    bytes32 public ipfsHash;\n    address public scheduledFrom;\n\n    address public owner = 0x0;\n\n    // will switch to true when initialized (prevents re-initialization)\n    bool public initialized = false;\n    \n    // will switch to true when claimed\n    bool public claimed = false;\n    address public claimingNode = 0x0;\n\n    // will switch to true when executed\n    bool public executed = false;\n\n    // will switch to true if successful\n    bool public successful = false;\n\n    // will switch to true if cancelled\n    bool public cancelled = false;\n\n    // disallow receiving ether\n    function() public {revert();}\n\n    function init(\n        bytes32 _ipfsHash,\n        address _owner,\n        address _scheduledFrom,\n        address _claimingNode\n    ) public payable {\n        require(!initialized);\n        ipfsHash = _ipfsHash;\n        owner = _owner;\n        scheduledFrom = _scheduledFrom;\n        claimingNode = _claimingNode;\n        initialized = true;\n    }\n\n    function checkHash(bytes _s)\n        public constant returns (bool)\n    {\n        bytes32 checkHash = IPFS(Scheduler(scheduledFrom).ipfs()).generateHash(_s);\n        return checkHash == ipfsHash;\n    }\n\n    function checkInExecutionWindow(\n        uint256 temporalUnit,\n        uint256 executionWindowStart,\n        uint256 executionWindowLength\n    ) private view returns (bool) {\n        if (temporalUnit == 1) {\n            return (\n                block.number >= executionWindowStart &&\n                block.number < executionWindowStart + executionWindowLength\n            );\n        } else if (temporalUnit == 2) {\n            return (\n                block.timestamp >= executionWindowStart &&\n                block.timestamp < executionWindowStart + executionWindowLength\n            );\n        } else { return false; }\n    }\n\n    function checkSecondHalfOfExecutionWindow(\n        uint256 temporalUnit,\n        uint256 executionWindowStart,\n        uint256 executionWindowLength\n    ) private view returns (bool) {\n        if (temporalUnit == 1) {\n            return block.number >= executionWindowStart + executionWindowLength /2;\n        } else if (temporalUnit == 2) {\n            return block.timestamp >= executionWindowStart + executionWindowLength /2;\n        } else { return false; }\n    }\n\n    function canExecute(bytes _serializedTransaction) public view returns(bool) {\n        address conditionalDest;\n\n        assembly {\n            conditionalDest := mload(add(_serializedTransaction, 320))\n        }\n\n        if (conditionalDest == 0x0) { //no conditional data\n            return true;\n        }\n\n        bytes memory conditionalCallData = getCallData(_serializedTransaction, 384);\n\n        return callWithData(conditionalDest, conditionalCallData) == 1;\n    }\n\n    function callWithData(address dest, bytes data) \n        private returns (bytes32 c)\n    {\n        assembly {\n            let freemem := mload(0x40)\n            \n            pop(\n            call(      \n                5000, //5k gas\n                dest, //To addr\n                0,    //No value\n                add(data, 0x20),    //Inputs are stored at location x\n                mload(data),\n                freemem,    //Store output over input (saves space)\n                0x20 //Outputs are 32 bytes long\n            )\n            )\n    \n            c := mload(freemem) //Assign output value to c\n            mstore(0x40, add(freemem, 0x20)) // Set storage pointer to empty space\n        }\n    }\n\n    function execute(bytes _serializedTransaction)\n        public returns (bool)\n    {\n        // uint256 startGas = msg.gas;\n        require(checkHash(_serializedTransaction));\n        require(canExecute(_serializedTransaction));\n\n        uint256 temporalUnit;\n        address recipient;\n        uint256 value;\n        uint256 callGas;\n        uint256 gasPrice;\n        uint256 executionWindowStart;\n        uint256 executionWindowLength;\n        uint256 bounty;\n        uint256 fee;\n\n        assembly {\n            temporalUnit := mload(add(_serializedTransaction, 32))\n            recipient := mload(add(_serializedTransaction, 64))\n            value := mload(add(_serializedTransaction, 96))\n            callGas := mload(add(_serializedTransaction, 128))\n            gasPrice := mload(add(_serializedTransaction, 160))\n            executionWindowStart := mload(add(_serializedTransaction, 192))\n            executionWindowLength := mload(add(_serializedTransaction, 224))\n            bounty := mload(add(_serializedTransaction, 256))\n            fee := mload(add(_serializedTransaction, 288))\n        }\n\n        bytes memory callData = getCallData(_serializedTransaction, 352);\n\n        // check gasleft() >= requiredGas\n        require(gasleft() >= callGas + 180000 - 25000);\n        // check that this hasn't been executed yet\n        require(!executed);\n        // check in execution window\n        require(\n            checkInExecutionWindow(\n                temporalUnit, \n                executionWindowStart, \n                executionWindowLength\n            )\n        );\n        // if claimed, check that claimer is executing\n        if (claimed) {\n            if (msg.sender != claimingNode) {\n                require(\n                    checkSecondHalfOfExecutionWindow(\n                        temporalUnit,\n                        executionWindowStart,\n                        executionWindowLength\n                    )\n                );\n            } else {\n                require(msg.sender == claimingNode);\n            }\n        }\n\n        // check gasPrice\n        require(tx.gasprice == gasPrice);\n\n        // mark that this has been executed\n        executed = true;\n\n        successful = recipient.call.value(value).gas(callGas)(callData);\n\n        // check bounty recipient, send bounty\n        // NOTE: In a `require()` gate now, but might lift this later.\n        require(bountyPayout(msg.sender, bounty));\n\n        //  check fee recipient, send fee\n        address feeRecipient = Scheduler(scheduledFrom).feeRecipient();\n        if (feeRecipient != 0x0) {\n            require(feePayout(feeRecipient, fee));\n        }\n        \n        // send remaining ether back to scheduler\n        owner.transfer(address(this).balance); //todo more checks on this\n\n        return true;\n    }\n\n    function bountyPayout(address _recip, uint256 _bounty)\n        private returns (bool)\n    {\n        return _recip.send(_bounty);\n    }\n\n    function feePayout(address _recip, uint256 _fee)\n        private returns (bool)\n    {\n        return _recip.send(_fee);\n    }\n\n    function getCallData(bytes _serializedTransaction, uint _startLoc) \n        private view returns (bytes)\n    {\n        uint256 start;\n        assembly {\n            start := mload(add(_serializedTransaction, _startLoc))\n        }\n        uint256 len = start + 0x20;\n        uint256 data = len + 0x20;\n        assembly {\n            len := mload(add(_serializedTransaction, len)) // location\n            data := add(_serializedTransaction, data)\n        }\n        return toBytes(data, len);\n    }\n\n    function toBytes(uint256 _ptr, uint256 _len) internal view returns (bytes) {\n        bytes memory ret = new bytes(_len);\n        uint retptr;\n        assembly { retptr := add(ret, 32)  }\n\n        memcpy(retptr, _ptr, _len);\n        return ret;\n    }\n\n    function memcpy(uint256 dest, uint src, uint len) private pure {\n        // Copy word-length chunks while possible\n        for(; len >= 32; len -= 32) {\n            assembly {\n                mstore(dest, mload(src))\n            }\n            dest += 32;\n            src += 32;\n        }\n \n        // Copy remaining bytes\n        uint mask = 256 ** (32 - len) - 1;\n        assembly {\n            let srcpart := and(mload(src), not(mask))\n            let destpart := and(mload(dest), mask)\n            mstore(dest, or(destpart, srcpart))\n        }\n    }\n\n    function cancel()\n        public returns (bool)\n    {\n        // check if msg.sender == owner\n        require(msg.sender == owner);\n        require(initialized);\n        require(!cancelled);\n        require(!executed);\n        cancelled = true;\n        owner.transfer(address(this).balance);\n        return true;\n    }\n\n    // function claim()\n    //     public returns (bool)\n    // {\n    //     if (claimingPool == address(0x0)) { return true; }\n    //     // Gate\n    //     bool canClaim = ClaimingPool(claimingPool).canClaim(msg.sender);\n    //     require(canClaim);\n    //     claimed = true;\n    //     claimingNode = msg.sender;\n    // }\n\n    function proxy(address _to, bytes _data)\n        public payable returns (bool)\n    {\n        require(msg.sender == owner);\n        require(executed); // make sure this is the only check we need\n        return _to.call.value(msg.value)(_data);\n    }\n\n    // pull transactions?\n}",
  "sourcePath": "/home/logan/Work/v2/chronos/contracts/ScheduledTransaction.sol",
  "compiler": {
    "name": "solc",
    "version": "0.4.21+commit.dfe3193c.Emscripten.clang"
  },
  "schemaVersion": "2.0.0",
  "updatedAt": "2018-05-11T10:17:10.293Z"
}