{
  "contractName": "ScheduledTransaction",
  "abi": [
    {
      "constant": true,
      "inputs": [],
      "name": "claimingPool",
      "outputs": [
        {
          "name": "",
          "type": "address"
        }
      ],
      "payable": false,
      "stateMutability": "view",
      "type": "function"
    },
    {
      "constant": true,
      "inputs": [],
      "name": "initialized",
      "outputs": [
        {
          "name": "",
          "type": "bool"
        }
      ],
      "payable": false,
      "stateMutability": "view",
      "type": "function"
    },
    {
      "constant": true,
      "inputs": [],
      "name": "executed",
      "outputs": [
        {
          "name": "",
          "type": "bool"
        }
      ],
      "payable": false,
      "stateMutability": "view",
      "type": "function"
    },
    {
      "constant": true,
      "inputs": [],
      "name": "claimingNode",
      "outputs": [
        {
          "name": "",
          "type": "address"
        }
      ],
      "payable": false,
      "stateMutability": "view",
      "type": "function"
    },
    {
      "constant": true,
      "inputs": [],
      "name": "scheduledFrom",
      "outputs": [
        {
          "name": "",
          "type": "address"
        }
      ],
      "payable": false,
      "stateMutability": "view",
      "type": "function"
    },
    {
      "constant": true,
      "inputs": [],
      "name": "owner",
      "outputs": [
        {
          "name": "",
          "type": "address"
        }
      ],
      "payable": false,
      "stateMutability": "view",
      "type": "function"
    },
    {
      "constant": true,
      "inputs": [],
      "name": "cancelled",
      "outputs": [
        {
          "name": "",
          "type": "bool"
        }
      ],
      "payable": false,
      "stateMutability": "view",
      "type": "function"
    },
    {
      "constant": true,
      "inputs": [],
      "name": "successful",
      "outputs": [
        {
          "name": "",
          "type": "bool"
        }
      ],
      "payable": false,
      "stateMutability": "view",
      "type": "function"
    },
    {
      "constant": true,
      "inputs": [],
      "name": "ipfsHash",
      "outputs": [
        {
          "name": "",
          "type": "bytes32"
        }
      ],
      "payable": false,
      "stateMutability": "view",
      "type": "function"
    },
    {
      "constant": true,
      "inputs": [],
      "name": "claimed",
      "outputs": [
        {
          "name": "",
          "type": "bool"
        }
      ],
      "payable": false,
      "stateMutability": "view",
      "type": "function"
    },
    {
      "payable": false,
      "stateMutability": "nonpayable",
      "type": "fallback"
    },
    {
      "anonymous": false,
      "inputs": [
        {
          "indexed": false,
          "name": "a",
          "type": "address"
        }
      ],
      "name": "log",
      "type": "event"
    },
    {
      "constant": false,
      "inputs": [
        {
          "name": "_ipfsHash",
          "type": "bytes32"
        },
        {
          "name": "_owner",
          "type": "address"
        },
        {
          "name": "_scheduledFrom",
          "type": "address"
        },
        {
          "name": "_claimingPool",
          "type": "address"
        }
      ],
      "name": "init",
      "outputs": [],
      "payable": true,
      "stateMutability": "payable",
      "type": "function"
    },
    {
      "constant": true,
      "inputs": [
        {
          "name": "_s",
          "type": "bytes"
        }
      ],
      "name": "checkHash",
      "outputs": [
        {
          "name": "",
          "type": "bool"
        }
      ],
      "payable": false,
      "stateMutability": "view",
      "type": "function"
    },
    {
      "constant": false,
      "inputs": [
        {
          "name": "_serializedTransaction",
          "type": "bytes"
        }
      ],
      "name": "execute",
      "outputs": [
        {
          "name": "",
          "type": "bool"
        }
      ],
      "payable": false,
      "stateMutability": "nonpayable",
      "type": "function"
    },
    {
      "constant": false,
      "inputs": [],
      "name": "cancel",
      "outputs": [
        {
          "name": "",
          "type": "bool"
        }
      ],
      "payable": false,
      "stateMutability": "nonpayable",
      "type": "function"
    },
    {
      "constant": false,
      "inputs": [],
      "name": "claim",
      "outputs": [
        {
          "name": "",
          "type": "bool"
        }
      ],
      "payable": false,
      "stateMutability": "nonpayable",
      "type": "function"
    },
    {
      "constant": false,
      "inputs": [
        {
          "name": "_to",
          "type": "address"
        },
        {
          "name": "_data",
          "type": "bytes"
        }
      ],
      "name": "proxy",
      "outputs": [
        {
          "name": "",
          "type": "bool"
        }
      ],
      "payable": true,
      "stateMutability": "payable",
      "type": "function"
    }
  ],
  "bytecode": "0x60606040526000600260006101000a81548173ffffffffffffffffffffffffffffffffffffffff021916908373ffffffffffffffffffffffffffffffffffffffff1602179055506000600260146101000a81548160ff0219169083151502179055506000600260156101000a81548160ff0219169083151502179055506000600360006101000a81548173ffffffffffffffffffffffffffffffffffffffff021916908373ffffffffffffffffffffffffffffffffffffffff1602179055506000600360146101000a81548160ff0219169083151502179055506000600360156101000a81548160ff0219169083151502179055506000600360166101000a81548160ff021916908315150217905550341561011a57600080fd5b6113dc806101296000396000f3006060604052600436106100e6576000357c0100000000000000000000000000000000000000000000000000000000900463ffffffff16806309c5eabe146100f65780630dcc66481461016b578063158ef93e146101c057806331a38c89146101ed5780634e71d92d1461021a57806378108f5214610247578063882d7a821461029c5780638da5cb5b146102f15780639a82a09a146103465780639a9e3fd814610373578063a0304e4c146103a0578063be6d055a14610419578063c623674f146104a2578063e834a834146104d3578063ea8a1af014610500578063faeb49681461052d575b34156100f157600080fd5b600080fd5b341561010157600080fd5b610151600480803590602001908201803590602001908080601f016020809104026020016040519081016040528093929190818152602001838380828437820191505050505050919050506105a2565b604051808215151515815260200191505060405180910390f35b341561017657600080fd5b61017e610988565b604051808273ffffffffffffffffffffffffffffffffffffffff1673ffffffffffffffffffffffffffffffffffffffff16815260200191505060405180910390f35b34156101cb57600080fd5b6101d36109ae565b604051808215151515815260200191505060405180910390f35b34156101f857600080fd5b6102006109c1565b604051808215151515815260200191505060405180910390f35b341561022557600080fd5b61022d6109d4565b604051808215151515815260200191505060405180910390f35b341561025257600080fd5b61025a610b79565b604051808273ffffffffffffffffffffffffffffffffffffffff1673ffffffffffffffffffffffffffffffffffffffff16815260200191505060405180910390f35b34156102a757600080fd5b6102af610b9f565b604051808273ffffffffffffffffffffffffffffffffffffffff1673ffffffffffffffffffffffffffffffffffffffff16815260200191505060405180910390f35b34156102fc57600080fd5b610304610bc5565b604051808273ffffffffffffffffffffffffffffffffffffffff1673ffffffffffffffffffffffffffffffffffffffff16815260200191505060405180910390f35b341561035157600080fd5b610359610beb565b604051808215151515815260200191505060405180910390f35b341561037e57600080fd5b610386610bfe565b604051808215151515815260200191505060405180910390f35b61041760048080356000191690602001909190803573ffffffffffffffffffffffffffffffffffffffff1690602001909190803573ffffffffffffffffffffffffffffffffffffffff1690602001909190803573ffffffffffffffffffffffffffffffffffffffff16906020019091905050610c11565b005b610488600480803573ffffffffffffffffffffffffffffffffffffffff1690602001909190803590602001908201803590602001908080601f01602080910402602001604051908101604052809392919081815260200183838082843782019150505050505091905050610d1c565b604051808215151515815260200191505060405180910390f35b34156104ad57600080fd5b6104b5610e25565b60405180826000191660001916815260200191505060405180910390f35b34156104de57600080fd5b6104e6610e2b565b604051808215151515815260200191505060405180910390f35b341561050b57600080fd5b610513610e3e565b604051808215151515815260200191505060405180910390f35b341561053857600080fd5b610588600480803590602001908201803590602001908080601f01602080910402602001604051908101604052809392919081815260200183838082843782019150505050505091905050610f8a565b604051808215151515815260200191505060405180910390f35b6000806000806000806000806000806105b961139c565b6000806105c58e610f8a565b15156105d057600080fd5b60208e01519b5060228e01519a5060428e0151995060628e0151985060828e0151975060a28e0151965060c28e0151955060e28e015194506101028e015193506106198e611129565b92506161a86202bf208a01035a1015151561063357600080fd5b600360149054906101000a900460ff1615151561064f57600080fd5b61065a8c8888611156565b151561066557600080fd5b600260159054906101000a900460ff1680156106cf5750600360009054906101000a900473ffffffffffffffffffffffffffffffffffffffff1673ffffffffffffffffffffffffffffffffffffffff163373ffffffffffffffffffffffffffffffffffffffff1614155b156106eb576106df8c888861122a565b15156106ea57600080fd5b5b873a1415156106f957600080fd5b6001600360146101000a81548160ff0219169083151502179055508a73ffffffffffffffffffffffffffffffffffffffff168a8a908560405180828051906020019080838360005b8381101561075c578082015181840152602081019050610741565b50505050905090810190601f1680156107895780820380516001836020036101000a031916815260200191505b50915050600060405180830381858888f19350505050600360156101000a81548160ff0219169083151502179055503391508173ffffffffffffffffffffffffffffffffffffffff166108fc869081150290604051600060405180830381858888f1935050505015156107fb57600080fd5b600160009054906101000a900473ffffffffffffffffffffffffffffffffffffffff1673ffffffffffffffffffffffffffffffffffffffff1663469048406040518163ffffffff167c0100000000000000000000000000000000000000000000000000000000028152600401602060405180830381600087803b151561088057600080fd5b5af1151561088d57600080fd5b50505060405180519050905060008173ffffffffffffffffffffffffffffffffffffffff161415156108fa578073ffffffffffffffffffffffffffffffffffffffff166108fc859081150290604051600060405180830381858888f1935050505015156108f957600080fd5b5b600260009054906101000a900473ffffffffffffffffffffffffffffffffffffffff1673ffffffffffffffffffffffffffffffffffffffff166108fc3073ffffffffffffffffffffffffffffffffffffffff16319081150290604051600060405180830381858888f19350505050151561097357600080fd5b60019c50505050505050505050505050919050565b600460009054906101000a900473ffffffffffffffffffffffffffffffffffffffff1681565b600260149054906101000a900460ff1681565b600360149054906101000a900460ff1681565b600080600073ffffffffffffffffffffffffffffffffffffffff16600460009054906101000a900473ffffffffffffffffffffffffffffffffffffffff1673ffffffffffffffffffffffffffffffffffffffff161415610a375760019150610b75565b600460009054906101000a900473ffffffffffffffffffffffffffffffffffffffff1673ffffffffffffffffffffffffffffffffffffffff1663bf3506c1336040518263ffffffff167c0100000000000000000000000000000000000000000000000000000000028152600401808273ffffffffffffffffffffffffffffffffffffffff1673ffffffffffffffffffffffffffffffffffffffff168152602001915050602060405180830381600087803b1515610af357600080fd5b5af11515610b0057600080fd5b505050604051805190509050801515610b1857600080fd5b6001600260156101000a81548160ff02191690831515021790555033600360006101000a81548173ffffffffffffffffffffffffffffffffffffffff021916908373ffffffffffffffffffffffffffffffffffffffff1602179055505b5090565b600360009054906101000a900473ffffffffffffffffffffffffffffffffffffffff1681565b600160009054906101000a900473ffffffffffffffffffffffffffffffffffffffff1681565b600260009054906101000a900473ffffffffffffffffffffffffffffffffffffffff1681565b600360169054906101000a900460ff1681565b600360159054906101000a900460ff1681565b600260149054906101000a900460ff16151515610c2d57600080fd5b836000816000191690555082600260006101000a81548173ffffffffffffffffffffffffffffffffffffffff021916908373ffffffffffffffffffffffffffffffffffffffff16021790555081600160006101000a81548173ffffffffffffffffffffffffffffffffffffffff021916908373ffffffffffffffffffffffffffffffffffffffff16021790555080600460006101000a81548173ffffffffffffffffffffffffffffffffffffffff021916908373ffffffffffffffffffffffffffffffffffffffff1602179055506001600260146101000a81548160ff02191690831515021790555050505050565b6000600260009054906101000a900473ffffffffffffffffffffffffffffffffffffffff1673ffffffffffffffffffffffffffffffffffffffff163373ffffffffffffffffffffffffffffffffffffffff16141515610d7a57600080fd5b600360149054906101000a900460ff161515610d9557600080fd5b8273ffffffffffffffffffffffffffffffffffffffff16348360405180828051906020019080838360005b83811015610ddb578082015181840152602081019050610dc0565b50505050905090810190601f168015610e085780820380516001836020036101000a031916815260200191505b5091505060006040518083038185875af192505050905092915050565b60005481565b600260159054906101000a900460ff1681565b6000600260009054906101000a900473ffffffffffffffffffffffffffffffffffffffff1673ffffffffffffffffffffffffffffffffffffffff163373ffffffffffffffffffffffffffffffffffffffff16141515610e9c57600080fd5b600260149054906101000a900460ff161515610eb757600080fd5b600360169054906101000a900460ff16151515610ed357600080fd5b600360149054906101000a900460ff16151515610eef57600080fd5b6001600360166101000a81548160ff021916908315150217905550600260009054906101000a900473ffffffffffffffffffffffffffffffffffffffff1673ffffffffffffffffffffffffffffffffffffffff166108fc3073ffffffffffffffffffffffffffffffffffffffff16319081150290604051600060405180830381858888f193505050501515610f8357600080fd5b6001905090565b600080600160009054906101000a900473ffffffffffffffffffffffffffffffffffffffff1673ffffffffffffffffffffffffffffffffffffffff1663d7959cf96040518163ffffffff167c0100000000000000000000000000000000000000000000000000000000028152600401602060405180830381600087803b151561101257600080fd5b5af1151561101f57600080fd5b5050506040518051905073ffffffffffffffffffffffffffffffffffffffff166354f0cbac846040518263ffffffff167c01000000000000000000000000000000000000000000000000000000000281526004018080602001828103825283818151815260200191508051906020019080838360005b838110156110b0578082015181840152602081019050611095565b50505050905090810190601f1680156110dd5780820380516001836020036101000a031916815260200191505b5092505050602060405180830381600087803b15156110fb57600080fd5b5af1151561110857600080fd5b50505060405180519050905060005460001916816000191614915050919050565b61113161139c565b60008061014284015191506101628401905061114d81836112fe565b92505050919050565b600060017e0100000000000000000000000000000000000000000000000000000000000002847dffffffffffffffffffffffffffffffffffffffffffffffffffffffffffff191614156111bb578243101580156111b4575081830143105b9050611223565b60027e0100000000000000000000000000000000000000000000000000000000000002847dffffffffffffffffffffffffffffffffffffffffffffffffffffffffffff1916141561121e57824210158015611217575081830142105b9050611223565b600090505b9392505050565b600060017e0100000000000000000000000000000000000000000000000000000000000002847dffffffffffffffffffffffffffffffffffffffffffffffffffffffffffff1916141561128f5760028281151561128357fe5b048301431090506112f7565b60027e0100000000000000000000000000000000000000000000000000000000000002847dffffffffffffffffffffffffffffffffffffffffffffffffffffffffffff191614156112f2576002828115156112e657fe5b048301421090506112f7565b600090505b9392505050565b61130661139c565b61130e61139c565b60008360405180591061131e5750595b9080825280601f01601f19166020018201604052509150602082019050611346818686611351565b819250505092915050565b60005b6020821015156113795782518452602084019350602083019250602082039150611354565b6001826020036101000a0390508019835116818551168181178652505050505050565b6020604051908101604052806000815250905600a165627a7a723058202eb9f9659115e9404f8ce421ddc6a89bb2bfb50fff33ef48735e8e3202d39beb0029",
  "source": "pragma solidity ^0.4.19;\n\nimport \"./ClaimingPool.sol\";\nimport \"./IPFS.sol\";\nimport \"./Scheduler.sol\";\n\ncontract ScheduledTransaction {\n    bytes32 public ipfsHash;\n    address public scheduledFrom;\n\n    address public owner = 0x0;\n\n    // will switch to true when initialized (prevents re-initialization)\n    bool public initialized = false;\n    \n    // will switch to true when claimed\n    bool public claimed = false;\n    address public claimingNode = 0x0;\n\n    // will switch to true when executed\n    bool public executed = false;\n\n    // will switch to true if successful\n    bool public successful = false;\n\n    // will switch to true if cancelled\n    bool public cancelled = false;\n\n    // disallow receiving ether\n    function() public {revert();}\n\n    address public claimingPool;\n\n    function init(\n        bytes32 _ipfsHash,\n        address _owner,\n        address _scheduledFrom,\n        address _claimingPool\n    ) public payable {\n        require(!initialized);\n        ipfsHash = _ipfsHash;\n        owner = _owner;\n        scheduledFrom = _scheduledFrom;\n        claimingPool = _claimingPool;\n        initialized = true;\n    }\n\n    function checkHash(bytes _s)\n        public constant returns (bool)\n    {\n        bytes32 checkHash = IPFS(Scheduler(scheduledFrom).ipfs()).generateHash(_s);\n        return checkHash == ipfsHash;\n    }\n\n    function checkInExecutionWindow(\n        bytes2 temporalUnit,\n        uint256 executionWindowStart,\n        uint256 executionWindowLength\n    ) private view returns (bool) {\n        if (temporalUnit == 1) {\n            return (\n                block.number >= executionWindowStart &&\n                block.number < executionWindowStart + executionWindowLength\n            );\n        } else if (temporalUnit == 2) {\n            return (\n                block.timestamp >= executionWindowStart &&\n                block.timestamp < executionWindowStart + executionWindowLength\n            );\n        } else { return false; }\n    }\n\n    function checkIfClaimed(\n        bytes2 temporalUnit,\n        uint256 executionWindowStart,\n        uint256 executionWindowLength\n    ) private view returns (bool) {\n        if (temporalUnit == 1) {\n            return block.number < executionWindowStart + executionWindowLength /2;\n        } else if (temporalUnit == 2) {\n            return block.timestamp < executionWindowStart + executionWindowLength /2;\n        } else { return false; }\n    }\n\n    event log(address a);\n\n    function execute(bytes _serializedTransaction)\n        public returns (bool)\n    {\n        // uint256 startGas = msg.gas;\n        require(checkHash(_serializedTransaction));\n\n        bytes2 temporalUnit;\n        address recipient;\n        uint256 value;\n        uint256 callGas;\n        uint256 gasPrice;\n        uint256 executionWindowStart;\n        uint256 executionWindowLength;\n        uint256 bounty;\n        uint256 fee;\n\n        assembly {\n            temporalUnit := mload(add(_serializedTransaction, 32))\n            recipient := mload(add(_serializedTransaction, 34))\n            value := mload(add(_serializedTransaction,66))\n            callGas := mload(add(_serializedTransaction, 98))\n            gasPrice := mload(add(_serializedTransaction, 130))\n            executionWindowStart := mload(add(_serializedTransaction, 162))\n            executionWindowLength := mload(add(_serializedTransaction, 194))\n            bounty := mload(add(_serializedTransaction, 226))\n            fee := mload(add(_serializedTransaction, 258))\n        }\n\n        bytes memory callData = getCallData(_serializedTransaction);\n\n        // check gasleft() >= requiredGas\n        require(gasleft() >= callGas + 180000 - 25000);\n        // check that this hasn't been executed yet\n        require(!executed);\n        // check in execution window\n        require(\n            checkInExecutionWindow(\n                temporalUnit, \n                executionWindowStart, \n                executionWindowLength\n            )\n        );\n        // if claimed, check that claimer is executing\n        if (claimed && msg.sender != claimingNode) {\n            require(\n                checkIfClaimed(\n                    temporalUnit,\n                    executionWindowStart,\n                    executionWindowLength\n                )\n            );\n        }\n        // check gasPrice\n        require(tx.gasprice == gasPrice);\n\n        // mark that this has been executed\n        executed = true;\n\n        successful = recipient.call.value(value).gas(callGas)(callData);\n\n        // check bounty recipient, send bounty\n        address bountyRecipient = msg.sender;\n        bountyRecipient.transfer(bounty);\n\n        //  check fee recipient, send fee\n        address feeRecipient = Scheduler(scheduledFrom).feeRecipient();\n        if (feeRecipient != 0x0) {\n            feeRecipient.transfer(fee);\n        }\n        \n        // send remaining ether back to scheduler\n        owner.transfer(address(this).balance); //todo more checks on this\n\n        return true;\n    }\n\n    function getCallData(bytes _serializedTransaction)\n        private view returns (bytes)\n    {\n        uint256 callDataLen;\n        uint256 callDataLoc;\n        assembly {\n            callDataLen := mload(add(_serializedTransaction, 322))\n            callDataLoc := add(_serializedTransaction, 354)\n        }\n        return toBytes(callDataLoc, callDataLen);\n    }\n\n    function toBytes(uint256 _ptr, uint256 _len) internal view returns (bytes) {\n        bytes memory ret = new bytes(_len);\n        uint retptr;\n        assembly { retptr := add(ret, 32)  }\n\n        memcpy(retptr, _ptr, _len);\n        return ret;\n    }\n\n    function memcpy(uint256 dest, uint src, uint len) private pure {\n        // Copy word-length chunks while possible\n        for(; len >= 32; len -= 32) {\n            assembly {\n                mstore(dest, mload(src))\n            }\n            dest += 32;\n            src += 32;\n        }\n \n        // Copy remaining bytes\n        uint mask = 256 ** (32 - len) - 1;\n        assembly {\n            let srcpart := and(mload(src), not(mask))\n            let destpart := and(mload(dest), mask)\n            mstore(dest, or(destpart, srcpart))\n        }\n    }\n\n    function cancel()\n        public returns (bool)\n    {\n        // check if msg.sender == owner\n        require(msg.sender == owner);\n        require(initialized);\n        require(!cancelled);\n        require(!executed);\n        cancelled = true;\n        owner.transfer(address(this).balance);\n        return true;\n    }\n\n    function claim()\n        public returns (bool)\n    {\n        if (claimingPool == address(0x0)) { return true; }\n        // Gate\n        bool canClaim = ClaimingPool(claimingPool).canClaim(msg.sender);\n        require(canClaim);\n        claimed = true;\n        claimingNode = msg.sender;\n    }\n\n    function proxy(address _to, bytes _data)\n        public payable returns (bool)\n    {\n        require(msg.sender == owner);\n        require(executed); // make sure this is the only check we need\n        return _to.call.value(msg.value)(_data);\n    }\n\n    // pull transactions?\n}",
  "sourcePath": "/home/logan/Work/v2/EAC-v2/contracts/ScheduledTransaction.sol",
  "compiler": {
    "name": "solc",
    "version": "0.4.21+commit.dfe3193c.Emscripten.clang"
  },
  "schemaVersion": "2.0.0",
  "updatedAt": "2018-04-13T10:24:25.417Z"
}